:020000040800F2
:100000000000022049160008C5150008C7150008A1
:10001000C9150008CB150008CD1500080000000028
:10002000000000000000000000000000CF150008E4
:10003000D115000800000000D3150008D5150008F0
:1000400099160008991600089916000899160008D4
:1000500099160008991600089916000899160008C4
:1000600099160008991600089916000899160008B4
:1000700099160008991600089916000899160008A4
:100080009916000899160008E51500089916000849
:100090009916000899160008991600089916000884
:1000A0009916000899160008991600089916000874
:1000B0009916000899160008991600089916000864
:1000C0009916000899160008991600089916000854
:1000D0009916000899160008991600089916000844
:1000E0009916000899160008991600089916000834
:1000F0009916000899160008991600089916000824
:100100009916000899160008991600089916000813
:100110009916000899160008F115000899160008AC
:1001200099160008991600089916000899160008F3
:1001300099160008991600089916000899160008E3
:1001400099160008991600089916000899160008D3
:1001500099160008991600089916000899160008C3
:1001600099160008991600089916000899160008B3
:10017000991600089916000899160008000000005A
:08018000991600089916000809
:1001880010B5054C237833B9044B13B10448AFF3C9
:1001980000800123237010BD0C0000200000000027
:1001A800E416000808B5034B1BB103490348AFF335
:1001B800008008BD0000000010000020E4160008C0
:1001C80053B94AB9002908BF00281CBF4FF0FF31B6
:1001D8004FF0FF3000F07AB9ADF1080C6DE904CEAC
:1001E80000F006F8DDF804E0DDE9022304B070470A
:1001F8002DE9F0478C460D460446089E002B51D148
:100208008A4217466DD9B2FA82FEBEF1000F0BD0B2
:10021800CEF1200C01FA0EF520FA0CFC02FA0EF7CA
:100228004CEA050C00FA0EF44FEA174A250CBCFB01
:10023800FAF81FFA87F90AFB18CC45EA0C4508FBBF
:1002480009F3AB420AD9ED1908F1FF3280F0238196
:10025800AB4240F22081A8F102083D44ED1AA4B255
:10026800B5FBFAF00AFB105544EA054400FB09F90E
:10027800A14509D9E41900F1FF3380F00A81A145AD
:1002880040F2078102383C44A4EB090440EA0840E4
:100298000021002E61D024FA0EF40023346073602C
:1002A800BDE8F0878B4207D9002E54D0002186E89C
:1002B80021000846BDE8F087B3FA83F1002940F031
:1002C8008E80AB4202D3824200F2FA80841A65EB38
:1002D80003050120AC46002E3FD086E81010BDE88B
:1002E800F08712B90127B7FBF2F7B7FA87FEBEF11C
:1002F800000F34D1EB1B3A0C1FFA87FC0121B3FB2A
:10030800F2F8250C02FB183345EA03450CFB08F309
:10031800AB4207D9ED1908F1FF3002D2AB4200F227
:10032800D1808046ED1AA3B2B5FBF2F002FB10555E
:1003380043EA05440CFB00FCA44507D9E41900F185
:10034800FF3302D2A44500F2B8801846A4EB0C048F
:1003580040EA08409DE731463046BDE8F087CEF1D7
:10036800200405FA0EF307FA0EF720FA04F83A0CFF
:1003780025FA04F448EA0308B4FBF2F14FEA1845F9
:1003880002FB11441FFA87FC45EA044501FB0CF304
:10039800AB4200FA0EF409D9ED1901F1FF3080F0F3
:1003A8008A80AB4240F2878002393D44EB1A1FFA3B
:1003B80088F5B3FBF2F002FB103345EA034500FB76
:1003C8000CF3AB4207D9ED1900F1FF386FD2AB42FD
:1003D8006DD902383D44EB1A40EA01418FE7C1F17B
:1003E800200722FA07F88B4005FA01F448EA0303CC
:1003F80020FA07FE4FEA134CFD404EEA040EB5FB07
:10040800FCF94FEA1E440CFB19551FFA83F844EA1D
:10041800054509FB08F4AC4202FA01F200FA01FAB8
:1004280008D9ED1809F1FF3043D2AC4241D9A9F1FE
:1004380002091D442D1B1FFA8EFEB5FBFCF00CFBB8
:1004480010554EEA054400FB08F8A04507D9E41802
:1004580000F1FF3529D2A04527D902381C4440EACB
:100468000940A4EB0804A0FB02894C45C6464D464A
:1004780015D312D056B1BAEB0E0364EB050404FA97
:1004880007F7CB401F43CC40376074600021BDE8BC
:10049800F0871846F8E69046E0E6C245EAD2B8EB9F
:1004A800020E69EB03050138E4E72846D7E7404622
:1004B80091E78146BEE7014678E702383C4445E7C4
:1004C800084608E7A8F102083D442BE7704700BF3B
:1004D80038B50E4A0E4B054618784FF47A73B3FBBD
:1004E800F0F31068B0FBF3F000F068FA044658B96E
:1004F8000F2D09D8024629464FF0FF3000F01EFAAA
:10050800044B20461D6038BD012038BD080000207E
:10051800000000200400002008B50B4B1A6842F4C4
:1005280000721A601A6842F480621A601A6842F40B
:1005380080721A60032000F0EFF90020FFF7C8FF6F
:1005480000F0ACFF002008BD003C0240034A044B09
:1005580011681B780B441360704700BF2800002007
:1005680000000020014B1868704700BF28000020D9
:1005780010B50446002800F09980036C23B9436441
:1005880080F83C3000F0D2FF236CDB0600F18C8051
:10059800236C23F4885323F0020343F002032364FB
:1005A800434B5A6822F440325A605A6861680A43D9
:1005B8005A60236821695A6822F480725A605A681E
:1005C80042EA01225A605A68A16822F040725A60D1
:1005D8005A680A435A609A68E16822F400629A608D
:1005E8009A680A439A603349A26A8A4250D0996845
:1005F80021F07061996099680A439A609A68E16A83
:1006080022F040529A609A680A439A609A68A169EF
:1006180022F002029A609A6842EA41029A60226ACB
:10062800002A3DD05A68616A42F400625A605A68EA
:1006380022F460425A605A68013942EA41325A60EB
:10064800DA6AE16922F47002DA62DA6A013942EAA6
:100658000152DA629A68216B22F400729A609A68F1
:1006680042EA41229A609A68616922F480629A603B
:100678009A68002042EA81229A606064236C23F021
:10068800030343F001032364002384F83C3010BDC6
:100698009A6822F070629A609A6822F04052B4E731
:1006A8005A6822F40062CAE70120EDE7012010BD74
:1006B800002301400100000F70477047704738B5AC
:1006C800036819685A688D0704462BD5900629D502
:1006D800226CD1065EBF226C42F4007222649A68D2
:1006E80012F0405F17D1A269AAB9DA6A12F4700F42
:1006F80002D09A6852050ED45A6822F020025A6035
:10070800236C23F480732364236CDB045EBF236CA7
:1007180043F0010323642046FFF7CEFF23686FF000
:1007280012021A60236819685A684D0732D51006F4
:1007380030D5226CD1065EBF226C42F4005222648E
:100748009A6812F4401F1ED19A6B12F4401F02D00F
:100758009A68520517D45A68550514D49A6812F045
:10076800405F10D1A26972B95A6822F080025A60BB
:10077800236C23F480532364236CD8055EBF236C59
:1007880043F001032364204600F0C4F823686FF0A7
:100798000C021A60236819685A68C9070FD55506EC
:1007A8000DD51B68D8070AD5236C43F4803323641E
:1007B8002046FFF782FF23686FF001021A60236862
:1007C80019685A6889060DD552010BD5626C6FF00D
:1007D800200542F00202626420461D60FFF76EFFAA
:1007E80023681D6038BD0000F7B50023019390F819
:1007F8003C30012B00F083800D6804688A6801236F
:10080800092D80F83C30AEB22AD906EB4603E768DA
:100818001E3B4FF0070E0EFA03FE27EA0E07E760AD
:10082800E76802FA03F33B43E3604A68062A4FEAA3
:10083800820325D81344676B591F1F238B4027EA6F
:1008480003036363626B06FA01F1114361632D4B85
:100858009C4234D0002380F83C30184603B0F0BDE9
:10086800276905EB45034FF0070E0EFA03FE27EA4A
:100878000E072761276902FA03F33B432361D4E794
:100888000C2A0ED81344216BA3F123021F23934093
:1008980021EA03032363236B06FA02F21A43226355
:1008A800D5E71344E16A413B1F229A4021EA02023C
:1008B800E262E26A06FA03F11143E162C7E7122D28
:1008C80004D1114A536843F480035360A5F110031F
:1008D800012BBFD80C4A5368102D43F40003536012
:1008E800B8D10A4B0A4A1B68B3FBF2F20A235343F6
:1008F8000193019B002BADD0019B013BF8E702203F
:10090800ACE700BF002001400023014008000020A0
:1009180040420F0070470000074AD36823F4E063A1
:100928001B041B0C43F0BF63000243F4003300F4C4
:10093800E0600343D360704700ED00E0174B30B52B
:10094800DC68C4F30224C4F10703251D042B28BF67
:100958000423062D4FF0010505FA03F303F1FF33D5
:100968008CBF033C00241940A14005FA04F4013C63
:100978002240002842EA01024FEA0212AFBF00F10A
:10098800604000F00F00064BD2B2A5BF00F56140F1
:10099800D2B21A5480F8002330BD00BF00ED00E049
:1009A80014ED00E04209012300F01F0003FA00F0F3
:1009B800014B43F82200704700E100E00138B0F134
:1009C800807F0AD2064B074A5860F02182F823102C
:1009D8000020072298601A6070470120704700BF06
:1009E80010E000E000ED00E0044B1A6804280CBF9A
:1009F80042F0040222F004021A60704710E000E09E
:100A0800704708B5FFF7FCFF08BD00002DE9F04F5F
:100A180085B00B68DFF8AC81684ADFF8AC910193C8
:100A280000234FF0010E019C0EFA03FE0EEA0406A5
:100A3800B64540F0AE804C6824F01007022F16D15E
:100A48004FEAD30A00EB8A0A03F0070BDAF82050C2
:100A58004FEA8B0B4FF00F0C0CFA0BFC25EA0C0C31
:100A68000D6905FA0BF545EA0C05CAF820504FEA5E
:100A7800430A0325D0F800B005FA0AF5ED4304F05F
:100A8800030C0BEA050B0CFA0AFC013F4CEA0B0CB1
:100A9800012FC0F800C011D8876807EA050BCF6896
:100AA80007FA0AFC4CEA0B078760476827EA0E0E2C
:100AB800C4F300179F4047EA0E074760C7683D40E8
:100AC8008F6807FA0AF73D43C560E50061D54FF026
:100AD800000BCDF80CB0D8F84470394D47F4804776
:100AE800C8F84470D8F8447007F480470397039F08
:100AF80023F0030707F1804707F59C3703F0030C41
:100B0800D7F808A04FEA8C0C4FF00F0E0EFA0CFE27
:100B1800A8422AEA0E0E43D005F58065A84241D0C6
:100B280005F58065A8423FD005F58065A8423DD00F
:100B380005F58065A8423BD048453BD005F50065E2
:100B4800A84239D005F58065A84214BF08250725B5
:100B580005FA0CF545EA0E05BD601568F74314F46F
:100B6800803F0CBF3D4035431560556814F4003F85
:100B78000CBF3D4035435560956814F4801F0CBF89
:100B88003D4035439560D568A40254BF3D40354388
:100B9800D5600133102B7FF444AF05B0BDE8F08F6A
:100BA8005D46D5E70125D3E70225D1E70325CFE741
:100BB8000425CDE70525CBE70625C9E7003C01401C
:100BC8000000024000380240001402402DE9F341C1
:100BD800044618B9012002B0BDE8F0810368DD07BA
:100BE80010D42368980758D423681A0700F19A800C
:100BF80023685B0700F1B880A269002A40F01981D8
:100C08000020E8E7A64B9A6802F00C02042A07D0F5
:100C18009A6802F00C02082A0AD15B68590207D5C3
:100C28009F4B1B689A03DCD56368002BD9D1D1E7A9
:100C380063689B4DB3F5803F11D12B6843F4803333
:100C48002B60FFF78FFC964D06462B689B03C8D494
:100C5800FFF788FC801B6428F7D90320BBE7B3F5AE
:100C6800A02F04D12B6843F480232B60E5E72A6882
:100C780022F480322A602A6822F480222A60002B1B
:100C8800DFD1FFF76FFC06462B689F03A9D5FFF756
:100C980069FC801B6428F7D9DFE7814B9A6812F05A
:100CA8000C0F07D09A6802F00C02082A11D15B6871
:100CB8005E020ED47A4B1A68950702D5E268012ABB
:100CC80088D11A68216922F0F80242EAC1021A6042
:100CD8008AE7E268734BB2B101221A60FFF742FC5F
:100CE8006F4D06462B68980707D52B68226923F0B5
:100CF800F80343EAC2032B6076E7FFF733FC801B57
:100D08000228EFD9A9E71A60FFF72CFC644D0646C4
:100D18002B6899077FF568AFFFF724FC801B022832
:100D2800F6D99AE76269604B7AB101221A60FFF737
:100D380019FC5B4D06466B6F9F073FF559AFFFF7F0
:100D480011FC801B0228F6D987E71A60FFF70AFC16
:100D5800534D06466B6F98077FF54AAFFFF702FCC5
:100D6800801B0228F6D978E74D4B1A6C12F0805296
:100D780028D101921A6C42F080521A641B6C03F05D
:100D880080530193019B0126484D2B68D9051BD53B
:100D9800A368434D012B27D12B6F43F001032B6729
:100DA800FFF7E0FB3E4D074641F288382B6F9B0763
:100DB80039D5002E3FF420AF394A136C23F0805305
:100DC800136419E70026DFE72B6843F480732B6070
:100DD800FFF7C8FB07462B68DA05D9D4FFF7C2FB33
:100DE800C01B0228F7D938E7052B04D12B6F43F035
:100DF80004032B67D0E72A6F22F001022A672A6FC3
:100E080022F004022A67002BCAD1FFF7ABFB41F29C
:100E1800883807462B6F9807CBD5FFF7A3FBC01B75
:100E28004045F7D919E7FFF79DFBC01B4045BDD9E1
:100E380013E71B4DAB6803F00C03082B3FF4CAAE55
:100E48001B4E0023022A336034D1FFF78BFB074681
:100E58002B6899011ED4226AE3691343626A43EA44
:100E68008213E26A43EA0263A26A0D4C5208013A0D
:100E780043EA02436B6001233360FFF773FB0546C7
:100E880023689A013FF5BCAEFFF76CFB401B0228B4
:100E9800F6D9E2E6FFF766FBC01B0228D8D9DCE6E4
:100EA8000038024000004742800E47420070004070
:100EB80060004742FFF756FB04462B689B017FF50D
:100EC8009FAEFFF74FFB001B0228F6D9C5E600BF0F
:100ED800134908B58B6803F00C03042B03D0082BC7
:100EE80003D0104808BD104808BD4A684B684968D7
:100EF80013F4800314BF0C480A48C1F3881118BFC3
:100F0800002302F03F02A1FB0001FFF759F9044B4F
:100F18005B68C3F3014301335B00B0FBF3F008BD2A
:100F2800003802400024F40000127A002DE9F04154
:100F38000D46044610B90120BDE8F081444B1A68FB
:100F480002F00F028A4228D321688F072DD4C807E0
:100F580040D43F4B1A6802F00F02954266D32268CC
:100F680051076CD4130707D53A4A2169936823F4CB
:100F7800604343EAC1039360FFF7AAFF354B364A43
:100F88009B68C3F30313D35CD840344B186000202C
:100F9800FFF79EFA0020BDE8F081CAB21A701B68FC
:100FA80003F00F039942C6D1CEE72A4B11F0040F84
:100FB8001EBF9A6842F4E0529A600E0742BF9A68D0
:100FC80042F460429A609A68A06822F0F0020243F4
:100FD8009A60BCE762681F4B012A1DD11B6813F495
:100FE800003FA8D01B4EB36823F003031343B3603C
:100FF800FFF7B8FA41F288380746B368626803F029
:101008000C03B3EB820FA4D0FFF7ACFAC01B40452A
:10101800F3D90320BDE8F081911E01291B6802D88D
:1010280013F0007FDDE713F0020FDAE7EAB21A7077
:101038001B6803F00F039D427FF47DAF8FE70549DE
:10104800E0688B6823F4E05303438B608AE700BFB2
:10105800003C024000380240FC160008080000204E
:10106800014B1868704700BF080000200368DA6861
:1010780042F00102DA601A6842F001021A600020A8
:1010880070477047704770477047704703681A6920
:10109800910710B504460ED5DA6892070BD56FF0A4
:1010A80002021A619B6901229B07027677D0FFF73B
:1010B800EAFF0023237623681A69500710D5DA68F7
:1010C80051070DD56FF004021A619B69022213F4CF
:1010D800407F2276204668D0FFF7D5FF002323768D
:1010E80023681A6912070FD5DA6810070CD56FF054
:1010F80008021A61DB6904229907227620465AD031
:10110800FFF7C1FF0023237623681A69D20610D59A
:10111800DA68D0060DD56FF010021A61DB69082273
:1011280013F4407F227620464BD0FFF7ACFF002314
:10113800237623681A69D10708D5DA68D20705D556
:101148006FF001021A612046FFF79BFF23681A69B6
:10115800100608D5DA68110605D56FF080021A6105
:10116800204600F0D6F823681A69520608D5DA68CE
:10117800500605D56FF040021A612046FFF785FF3B
:1011880023681A69910622D5DA6892061FD56FF08E
:10119800200220461A61BDE8104000F0B9B8FFF7F8
:1011A80071FF2046FFF770FF83E7FFF76BFF2046CC
:1011B800FFF76AFF92E7FFF765FF2046FFF764FF36
:1011C800A0E7FFF75FFF2046FFF75EFFAFE710BD20
:1011D8002E4A0368904212D0B0F1804F0FD0A2F58A
:1011E8007C4290420BD002F58062904207D002F513
:1011F8008062904203D002F5784290421DD14A683D
:1012080023F070031343214A904204D1CA6823F49F
:101218004073134328E0B0F1804FF7D01C4A904246
:10122800F4D002F580629042F0D002F580629042DC
:10123800ECD002F578429042E8D0164A9042E5D0C8
:1012480002F580629042E1D002F580629042DDD0E2
:10125800A2F598329042D9D002F580629042D5D05A
:1012680002F580629042D1D003608B68C3620B683C
:101278008362064B984206D003F58063984202D0F9
:101288000123436170470B690363F9E700000140DC
:10129800000400400040014010B50446A0B190F899
:1012A800393003F0FF021BB980F8382000F068F9E4
:1012B800022384F839302068211DFFF789FF0123B4
:1012C80084F83930002010BD012010BD90F8383066
:1012D800012B10B54FF0020318D080F8393003689D
:1012E8000C685A68496822F070025A605A682243AA
:1012F8005A609A6822F080029A609A680A439A6053
:10130800012380F83930002380F83830184610BDA2
:101318007047704730B595B0274B002101911A6C82
:1013280042F080521A641B6C03F080530193019BB6
:10133800224B02911A6842F480421A601B6803F437
:1013480080430293029B012308934FF4803309934F
:101358004FF48003022504240F9308A8A8230E95B0
:101368001094119312951394FFF730FC00B1FEE727
:101378000F2303934FF4A0530590069305214FF4D0
:10138800805303A804950793FFF7D0FD054600B1E5
:10139800FEE7FFF765FE4FF47A73B0FBF3F0FFF753
:1013A8000DFB2046FFF720FB2A4629464FF0FF3069
:1013B800FFF7C4FA15B030BD003802400070004095
:1013C80000B589B0FFF7A8F8FFF7A4FF00232D4A5E
:1013D8000193116B2C4C41F080011163116B01F0EA
:1013E8008001019101990293116B41F0040111638D
:1013F800116B01F00401029102990393116B41F002
:1014080001011163126B2149A36002F001020392EA
:10141800039A23614FF48032012584E806002046B0
:101428001B4AA3612362E362A262E360E56123636E
:101438006561FFF79DF800B1FEE70E23049304A948
:101448000223204605950693FFF7CEF900B1FEE783
:10145800104C114AA060142384E80C002046632332
:10146800E360FFF719FF00B1FEE70490059004A9B7
:101478002046FFF72BFF00B1FEE72046FFF7F6FDF9
:10148800FEE700BF003802402C0000200020014089
:101498000100000F740000200010004013B5224B1B
:1014A800002400945A6C42F480425A645A6C02F444
:1014B80080420092009A01941A6C42F080521A6499
:1014C8001B6C03F0805301930320019BFFF724FA60
:1014D800224621466FF00B00FFF730FA22462146DC
:1014E8006FF00A00FFF72AFA224621466FF009003A
:1014F800FFF724FA224621466FF00400FFF71EFA90
:10150800224621466FF00300FFF718FA22462146CB
:101518006FF00100FFF712FA224621464FF0FF3024
:10152800FFF70CFA02B010BD0038024010B502688F
:10153800114B9A4286B01DD1002403F58C330094D8
:101548005A6C0E4842F480725A645B6C039403F43C
:1015580080730093009B1023019301A90323029336
:10156800FFF754FA122022460221FFF7E7F912206A
:10157800FFF718FA06B010BD00200140000802402D
:1015880007B50D4B02689A4213D103F50A330022BE
:101598000192196C41F0100119641B6C03F01003DF
:1015A800019336200321019BFFF7C8F93620FFF786
:1015B800F9F903B05DF804FB001000407047FEE73E
:1015C800FEE7FEE7FEE770477047704708B5FEF78D
:1015D800BDFFBDE80840FFF714BA00000148FFF757
:1015E8006EB800BF2C0000200148FFF74FBD00BFB8
:1015F800740000200F49D1F8883043F47003C1F813
:1016080088300D4B1A68002042F001021A60986079
:101618001A6822F0847222F480321A60074A5A60EB
:101628001A6822F480221A60D8604FF000638B6039
:10163800704700BF00ED00E0003802401030002481
:10164800DFF834D0002103E00C4B5B5843500431E1
:101658000B480C4B42189A42F6D30B4A02E000237F
:1016680042F8043B094B9A42F9D3FFF7C3FF00F055
:1016780011F8FFF7A5FE7047000002201C170008AC
:10168800000000200C0000200C000020B400002006
:10169800FEE7000070B50D4E0D4CA41BA4100025EC
:1016A800A54209D10B4E0C4C00F018F8A41BA4104D
:1016B8000025A54205D170BD56F82530984701355B
:1016C800EEE756F8253098470135F2E71417000879
:1016D800141700081417000818170008F8B500BFF9
:1016E800F8BC08BC9E467047F8B500BFF8BC08BCFB
:0416F8009E46704753
:1016FC0000000000000000000102030406070809B6
:08170C00ECEAFF7F0100000080
:04171400AD0100081B
:04171800890100083B
:0C171C0001000000100000000024F40098
:040000050800164990
:00000001FF
