:020000040800F2
:1000000000000220ED410008F94000080741000807
:100010000D410008134100081941000800000000CC
:100020000000000000000000000000001F41000868
:100030002D410008000000003B4100084941000834
:100040003D4200083D4200083D4200083D42000894
:100050003D4200083D4200083D4200083D42000884
:100060003D4200083D4200083D4200083D42000874
:100070003D4200083D4200083D4200083D42000864
:100080003D4200083D420008594100083D42000839
:100090003D4200083D4200083D4200083D42000844
:1000A0003D4200083D4200083D4200083D42000834
:1000B0003D4200083D4200083D4200083D42000824
:1000C0003D4200083D4200083D4200083D42000814
:1000D0003D4200083D4200083D4200083D42000804
:1000E0003D4200083D4200083D4200083D420008F4
:1000F0003D4200083D4200083D4200083D420008E4
:100100003D4200083D4200083D4200083D420008D3
:100110003D4200083D4200083D4200083D420008C3
:100120006D4100083D4200083D4200083D42000884
:100130003D4200083D4200083D4200083D420008A3
:100140003D4200083D4200083D4200083D42000893
:100150003D4200083D4200083D4200083D42000883
:100160003D4200083D4200083D4200083D42000873
:100170003D4200083D4200083D42000800000000EA
:080180003D4200083D42000869
:1001880010B5054C237833B9044B13B10448AFF3C9
:1001980000800123237010BD0C0000200000000027
:1001A8008842000808B5034B1BB103490348AFF365
:1001B800008008BD000000001000002088420008F0
:1001C80081F0004102E000BF83F0004330B54FEA00
:1001D80041044FEA430594EA050F08BF90EA020F6D
:1001E8001FBF54EA000C55EA020C7FEA645C7FEA00
:1001F800655C00F0E2804FEA5454D4EB5555B8BF23
:100208006D420CDD2C4480EA020281EA030382EA93
:10021800000083EA010180EA020281EA0303362D25
:1002280088BF30BD11F0004F4FEA01314FF4801CF8
:100238004CEA113102D0404261EB410113F0004F0A
:100248004FEA03334CEA133302D0524263EB4303C1
:1002580094EA050F00F0A780A4F10104D5F1200E5F
:100268000DDB02FA0EFC22FA05F2801841F10001BA
:1002780003FA0EF2801843FA05F359410EE0A5F18E
:1002880020050EF1200E012A03FA0EFC28BF4CF0BF
:10029800020C43FA05F3C01851EBE37101F0004575
:1002A80007D54FF0000EDCF1000C7EEB00006EEB82
:1002B8000101B1F5801F1BD3B1F5001F0CD349080C
:1002C8005FEA30004FEA3C0C04F101044FEA445263
:1002D80012F5800F80F09A80BCF1004F08BF5FEAEA
:1002E800500C50F1000041EB045141EA050130BDCA
:1002F8005FEA4C0C404141EB010111F4801FA4F16D
:100308000104E9D191F0000F04BF01460020B1FAC1
:1003180081F308BF2033A3F10B03B3F120020CDAF9
:100328000C3208DD02F1140CC2F10C0201FA0CF0D7
:1003380021FA02F10CE002F11402D8BFC2F1200C3C
:1003480001FA02F120FA0CFCDCBF41EA0C019040F2
:10035800E41AA2BF01EB0451294330BD6FEA04043B
:100368001F3C1CDA0C340EDC04F11404C4F1200226
:1003780020FA04F001FA02F340EA030021FA04F338
:1003880045EA030130BDC4F10C04C4F1200220FA8F
:1003980002F001FA04F340EA0300294630BD21FACD
:1003A80004F0294630BD94F0000F83F4801306BF93
:1003B80081F480110134013D4EE77FEA645C18BF87
:1003C8007FEA655C29D094EA050F08BF90EA020F1E
:1003D80005D054EA000C04BF1946104630BD91EA16
:1003E800030F1EBF0021002030BD5FEA545C05D119
:1003F8004000494128BF41F0004130BD14F5800458
:100408003CBF01F5801130BD01F0004545F0FE41CB
:1004180041F470014FF0000030BD7FEA645C1ABF00
:10042800194610467FEA655C1CBF0B46024650EA37
:10043800013406BF52EA033591EA030F41F4002163
:1004480030BD00BF90F0000F04BF0021704730B5E9
:100458004FF4806404F132044FF000054FF00001BE
:1004680050E700BF90F0000F04BF0021704730B57F
:100478004FF4806404F1320410F0004548BF404254
:100488004FF000013EE700BF42004FEAE2014FEAA9
:1004980031014FEA02701FBF12F07F4393F07F4F84
:1004A80081F06051704792F0000F14BF93F07F4FB6
:1004B800704730B54FF4607401F0004521F00041F9
:1004C80020E700BF50EA010208BF704730B54FF07F
:1004D80000050AE050EA010208BF704730B511F084
:1004E800004502D5404261EB41014FF4806404F1BC
:1004F80032045FEA915C3FF4DCAE4FF003025FEA3E
:10050800DC0C18BF03325FEADC0C18BF033202EBC5
:10051800DC02C2F1200300FA03FC20FA02F001FA1F
:1005280003FE40EA0E0021FA02F11444C1E600BFBE
:1005380070B54FF0FF0C4CF4E06C1CEA11541DBF71
:100548001CEA135594EA0C0F95EA0C0F00F0DEF83C
:100558002C4481EA030621EA4C5123EA4C5350EA21
:10056800013518BF52EA033541F4801143F4801372
:1005780038D0A0FB02CE4FF00005E1FB02E506F003
:100588000042E0FB03E54FF00006E1FB03569CF058
:10059800000F18BF4EF0010EA4F1FF04B6F5007F5E
:1005A80064F5407404D25FEA4E0E6D4146EB0606D0
:1005B80042EAC62141EA55514FEAC52040EA5E5059
:1005C8004FEACE2EB4F1FD0C88BFBCF5E06F1ED803
:1005D800BEF1004F08BF5FEA500E50F1000041EB3A
:1005E800045170BD06F0004646EA010140EA0200E7
:1005F80081EA0301B4EB5C04C2BFD4EB0C0541EA09
:10060800045170BD41F480114FF0000E013C00F31D
:10061800AB8014F1360FDEBF002001F0004170BD41
:10062800C4F10004203C35DA0C341BDC04F114045A
:10063800C4F1200500FA05F320FA04F001FA05F2E6
:1006480040EA020001F0004221F0004110EBD370B3
:1006580021FA04F642EB06015EEA430E08BF20EADF
:10066800D37070BDC4F10C04C4F1200500FA04F382
:1006780020FA05F001FA04F240EA020001F0004114
:1006880010EBD37041F100015EEA430E08BF20EA87
:10069800D37070BDC4F1200500FA05F24EEA020ECF
:1006A80020FA04F301FA05F243EA020321FA04F0FE
:1006B80001F0004121FA04F220EA020000EBD370B5
:1006C8005EEA430E08BF20EAD37070BD94F0000FB5
:1006D8000FD101F00046400041EB010111F4801FE9
:1006E80008BF013CF7D041EA060195F0000F18BF9A
:1006F800704703F00046520043EB030313F4801FD6
:1007080008BF013DF7D043EA0603704794EA0C0F8F
:100718000CEA135518BF95EA0C0F0CD050EA4106A5
:1007280018BF52EA4306D1D181EA030101F0004122
:100738004FF0000070BD50EA410606BF104619464A
:1007480052EA430619D094EA0C0F02D150EA013656
:1007580013D195EA0C0F05D152EA03361CBF104697
:1007680019460AD181EA030101F0004141F0FE4136
:1007780041F470014FF0000070BD41F0FE4141F4BA
:10078800780170BD70B54FF0FF0C4CF4E06C1CEABA
:1007980011541DBF1CEA135594EA0C0F95EA0C0F6F
:1007A80000F0A7F8A4EB050481EA030E52EA03352A
:1007B8004FEA013100F088804FEA03334FF080554B
:1007C80045EA131343EA12634FEA022245EA111578
:1007D80045EA10654FEA00260EF000419D4208BF29
:1007E800964244F1FD0404F5407402D25B084FEAD6
:1007F8003202B61A65EB03055B084FEA32024FF482
:1008080080104FF4002CB6EB020E75EB030E22BFDE
:10081800B61A754640EA0C005B084FEA3202B6EB9E
:10082800020E75EB030E22BFB61A754640EA5C004D
:100838005B084FEA3202B6EB020E75EB030E22BFDD
:10084800B61A754640EA9C005B084FEA3202B6EBDE
:10085800020E75EB030E22BFB61A754640EADC009D
:1008680055EA060E18D04FEA051545EA16754FEAFF
:1008780006164FEAC30343EA52734FEAC2025FEA1D
:100888001C1CC0D111F4801F0BD141EA00014FF0AC
:1008980000004FF0004CB6E711F4801F04BF01437D
:1008A8000020B4F1FD0C88BFBCF5E06F3FF6AFAE99
:1008B800B5EB030C04BFB6EB020C5FEA500C50F129
:1008C800000041EB045170BD0EF0004E4EEA1131AC
:1008D80014EB5C04C2BFD4EB0C0541EA045170BDB3
:1008E80041F480114FF0000E013C90E645EA060EF7
:1008F8008DE60CEA135594EA0C0F08BF95EA0C0F25
:100908003FF43BAF94EA0C0F0AD150EA01347FF46C
:1009180034AF95EA0C0F7FF425AF104619462CE743
:1009280095EA0C0F06D152EA03353FF4FDAE1046A6
:10093800194622E750EA410618BF52EA43067FF4F7
:10094800C5AE50EA41047FF40DAF52EA43057FF487
:10095800EBAE12E74FEA4102B2F1E04324BFB3F530
:10096800001CDCF1FE5C0DD901F0004C4FEAC0021E
:100978004CEA5070B2F1004F40EB830008BF20F002
:100988000100704711F0804F21D113F13872BCBFBC
:1009980001F00040704741F480114FEA5252C2F111
:1009A8001802C2F1200C10FA0CF320FA02F018BF5A
:1009B80040F001004FEAC1234FEAD32303FA0CFCAD
:1009C80040EA0C0023FA02F34FEA4303CCE77FEA3C
:1009D800625307D150EA01331EBF4FF0FE4040F486
:1009E8004000704701F0004040F0FE4040F4000035
:1009F800704700BF53B94AB9002908BF00281CBF77
:100A08004FF0FF314FF0FF3000F07AB9ADF1080C2C
:100A18006DE904CE00F006F8DDF804E0DDE9022314
:100A280004B070472DE9F0478C460D460446089EF1
:100A3800002B51D18A4217466DD9B2FA82FEBEF117
:100A4800000F0BD0CEF1200C01FA0EF520FA0CFCA9
:100A580002FA0EF74CEA050C00FA0EF44FEA174AB0
:100A6800250CBCFBFAF81FFA87F90AFB18CC45EAF3
:100A78000C4508FB09F3AB420AD9ED1908F1FF321E
:100A880080F02381AB4240F22081A8F102083D4466
:100A9800ED1AA4B2B5FBFAF00AFB105544EA054476
:100AA80000FB09F9A14509D9E41900F1FF3380F0E9
:100AB8000A81A14540F2078102383C44A4EB0904AD
:100AC80040EA08400021002E61D024FA0EF40023E9
:100AD80034607360BDE8F0878B4207D9002E54D08C
:100AE800002186E821000846BDE8F087B3FA83F1C3
:100AF800002940F08E80AB4202D3824200F2FA8095
:100B0800841A65EB03050120AC46002E3FD086E829
:100B18001010BDE8F08712B90127B7FBF2F7B7FA52
:100B280087FEBEF1000F34D1EB1B3A0C1FFA87FC8D
:100B38000121B3FBF2F8250C02FB183345EA034503
:100B48000CFB08F3AB4207D9ED1908F1FF3002D2CC
:100B5800AB4200F2D1808046ED1AA3B2B5FBF2F0A9
:100B680002FB105543EA05440CFB00FCA44507D9D9
:100B7800E41900F1FF3302D2A44500F2B880184608
:100B8800A4EB0C0440EA08409DE731463046BDE836
:100B9800F087CEF1200405FA0EF307FA0EF720FAD3
:100BA80004F83A0C25FA04F448EA0308B4FBF2F115
:100BB8004FEA184502FB11441FFA87FC45EA044531
:100BC80001FB0CF3AB4200FA0EF409D9ED1901F15F
:100BD800FF3080F08A80AB4240F2878002393D4482
:100BE800EB1A1FFA88F5B3FBF2F002FB103345EA63
:100BF800034500FB0CF3AB4207D9ED1900F1FF38B0
:100C08006FD2AB426DD902383D44EB1A40EA01413C
:100C18008FE7C1F1200722FA07F88B4005FA01F4A3
:100C280048EA030320FA07FE4FEA134CFD404EEA58
:100C3800040EB5FBFCF94FEA1E440CFB19551FFACC
:100C480083F844EA054509FB08F4AC4202FA01F2CC
:100C580000FA01FA08D9ED1809F1FF3043D2AC4285
:100C680041D9A9F102091D442D1B1FFA8EFEB5FBBF
:100C7800FCF00CFB10554EEA054400FB08F8A045B3
:100C880007D9E41800F1FF3529D2A04527D9023841
:100C98001C4440EA0940A4EB0804A0FB02894C4527
:100CA800C6464D4615D312D056B1BAEB0E0364EBC7
:100CB800050404FA07F7CB401F43CC403760746043
:100CC8000021BDE8F0871846F8E69046E0E6C24500
:100CD800EAD2B8EB020E69EB03050138E4E72846CF
:100CE800D7E7404691E78146BEE7014678E70238F4
:100CF8003C4445E7084608E7A8F102083D442BE7CD
:100D0800704700BF80B500AF0E4A0E4B1B6843F416
:100D1800007313600B4A0B4B1B6843F4806313602A
:100D2800084A084B1B6843F480731360032000F0E3
:100D380039FE002000F008F803F0C2F80023184636
:100D480080BD00BF003C024080B582B000AF786033
:100D5800124B1A68124B1B7819464FF47A73B3FB7F
:100D6800F1F3B2FBF3F3184600F051FE0346002BF3
:100D780001D001230EE07B680F2B0AD80022796886
:100D88004FF0FF3000F019FE064A7B68136000231D
:100D980000E0012318460837BD4680BD0800002042
:100DA800040000200000002080B400AF064B1B7830
:100DB8001A46064B1B681344044A136000BFBD461D
:100DC8005DF8047B704700BF04000020500000203D
:100DD80080B400AF034B1B681846BD465DF8047B22
:100DE800704700BF5000002080B584B000AF786025
:100DF8000023FB737B68002B01D1012333E07B6860
:100E08001B6C002B09D17B6800225A647B68002286
:100E180083F83C20786803F0A5F87B681B6C03F026
:100E28001003002B18D17B681B6C23F4885323F024
:100E3800020343F002027B681A64786800F06CFBD6
:100E48007B6800225A647B681B6C23F0030343F021
:100E580001027B681A6401E00123FB737B680022AE
:100E680083F83C20FB7B18461037BD4680BD80B513
:100E780084B000AF78600023FB600023BB607B6810
:100E88001B681B6803F00203022B0CBF012300231D
:100E9800DBB2FB607B681B685B6803F02003202BD8
:100EA8000CBF01230023DBB2BB60FB68002B49D0D9
:100EB800BB68002B46D07B681B6C03F01003002B2B
:100EC80005D17B681B6C43F400727B681A647B68ED
:100ED8001B689B6803F04053002B2BD17B689B69F0
:100EE800002B27D17B681B68DB6A03F47003002B97
:100EF80006D07B681B689B6803F48063002B19D1BC
:100F08007B681B687A681268526822F020025A606F
:100F18007B681B6C23F480727B681A647B681B6C8B
:100F280003F48053002B05D17B681B6C43F001024E
:100F38007B681A64786802F0DFFC7B681B686FF0D6
:100F480012021A607B681B681B6803F00403042BF9
:100F58000CBF01230023DBB2FB607B681B685B6866
:100F680003F08003802B0CBF01230023DBB2BB609E
:100F7800FB68002B57D0BB68002B54D07B681B6CD8
:100F880003F01003002B05D17B681B6C43F400525F
:100F98007B681A647B681B689B6803F44013002B0A
:100FA80039D17B681B689B6B03F44013002B06D078
:100FB8007B681B689B6803F48063002B2BD17B68DC
:100FC8001B685B6803F48063002B24D17B681B6873
:100FD8009B6803F04053002B1DD17B689B69002B55
:100FE80019D17B681B687A681268526822F08002FF
:100FF8005A607B681B6C23F480527B681A647B6898
:101008001B6C03F48073002B05D17B681B6C43F0C9
:1010180001027B681A64786800F0F0FB7B681B6843
:101028006FF00C021A607B681B681B6803F00103F1
:10103800012B0CBF01230023DBB2FB607B681B681C
:101048005B6803F04003402B0CBF01230023DBB295
:10105800BB60FB68002B17D0BB68002B14D07B68E3
:101068001B681B6803F00103012B0DD17B681B6C07
:1010780043F480327B681A64786800F015F97B685D
:101088001B686FF001021A607B681B681B6803F01D
:101098002003202B0CBF01230023DBB2FB607B68FD
:1010A8001B685B6803F08063B3F1806F0CBF01239A
:1010B8000023DBB2BB60FB68002B15D0BB68002B9C
:1010C80012D07B685B6C43F002027B685A647B68D1
:1010D8001B686FF020021A60786800F0EFF87B68F0
:1010E8001B686FF020021A6000BF1037BD4680BD34
:1010F80080B586B000AFF860B9607A6000233B61C4
:10110800FB6893F83C30012B01D10223B0E0FB6867
:10111800012283F83C20FB681B689B6803F00103ED
:10112800012B18D0FB681B68FA681268926842F0B5
:1011380001029A60504B1B68504AA2FB03239A0C89
:1011480013465B0013443B6102E03B69013B3B6192
:101158003B69002BF9D1FB681B689B6803F001030E
:10116800002B00F08480FB681B6C23F4E06323F001
:10117800010343F48072FB681A64FB681B685B68B0
:1011880003F48063002B07D0FB681B6C23F44053E7
:1011980043F48052FB681A64FB681B6C03F48053A9
:1011A800002B06D0FB685B6C23F00602FB685A64D0
:1011B80002E0FB6800225A64FB68002283F83C20A6
:1011C8002F4B7B61FB689B6B2E4ADA63FB689B6B3A
:1011D8002D4A1A64FB689B6B2C4ADA64FB681B680F
:1011E8006FF022021A60FB681B68FA68126852687E
:1011F80042F080625A60FB681B68FA68126892685D
:1012080042F480729A60FB68986BFB681B684C33E9
:101218001946BA687B6800F0DFFC7B695B6803F0FD
:101228001F03002B0FD1FB681B689B6803F040531A
:10123800002B1CD1FB681B68FA681268926842F0A0
:1012480080429A6013E0FB681B68114A93420ED1F2
:10125800FB681B689B6803F04053002B07D1FB68B1
:101268001B68FA681268926842F080429A6000230C
:1012780018461837BD4680BD0800002083DE1B4392
:101288000023014015170008BB170008D7170008EE
:101298000020014080B483B000AF786000BF0C37F5
:1012A800BD465DF8047B704780B483B000AF7860BA
:1012B80000BF0C37BD465DF8047B704780B483B02F
:1012C80000AF786000BF0C37BD465DF8047B7047FF
:1012D80090B484B000AF786039600023BB607B684D
:1012E80093F83C30012B01D1022307E17B680122EE
:1012F80083F83C203B681B68092B26D97B681A6851
:101308007B681B68D9683B681B689BB21846034614
:101318005B0003441E3B072000FA03F3DB430B404A
:10132800D3607B681A687B681B68D9683B689868D3
:101338003B681B689BB21C4623465B0023441E3B4C
:1013480000FA03F30B43D36023E07B681A687B68D9
:101358001B6819693B681B689BB2184603465B000B
:101368000344072000FA03F3DB430B4013617B6857
:101378001A687B681B6819693B6898683B681B6832
:101388009BB21C4623465B00234400FA03F30B433D
:1013980013613B685B68062B24D87B6819687B68F7
:1013A8001B68586B3B685A6813469B001344053BFF
:1013B8001F2202FA03F3DB4303404B637B6819687F
:1013C8007B681B68586B3B681B689BB21C463B6874
:1013D8005A6813469B001344053B04FA03F303437E
:1013E8004B634CE03B685B680C2B24D87B6819681E
:1013F8007B681B68186B3B685A6813469B0013444C
:10140800233B1F2202FA03F3DB4303400B637B6891
:1014180019687B681B68186B3B681B689BB21C4685
:101428003B685A6813469B001344233B04FA03F3B2
:1014380003430B6323E07B6819687B681B68D86AE1
:101448003B685A6813469B001344413B1F2202FA2B
:1014580003F3DB430340CB627B6819687B681B6836
:10146800D86A3B681B689BB21C463B685A6813469F
:101478009B001344413B04FA03F30343CB62224B22
:10148800FB607B681B68214A934209D13B681B6853
:10149800122B05D1FB685B6843F48002FB685A6035
:1014A8007B681B68194A934223D13B681B68102B41
:1014B80003D03B681B68112B1BD1FB685B6843F4A6
:1014C8000002FB685A603B681B68102B11D1104B57
:1014D8001B68104AA2FB03239A0C13469B00134473
:1014E8005B00BB6002E0BB68013BBB60BB68002BD4
:1014F800F9D17B68002283F83C2000231846103776
:10150800BD4690BC704700BF002301400020014049
:101518000800002083DE1B4380B485B000AF7860EC
:10152800784BFB60FB685B6823F44032FB685A60C9
:10153800FB685A687B685B681A43FB685A607B687B
:101548001B687A681268526822F480725A607B6855
:101558001B687A68126851687A68126912020A432D
:101568005A607B681B687A681268526822F0407279
:101578005A607B681B687A68126851687A68926852
:101588000A435A607B681B687A681268926822F47A
:1015980000629A607B681B687A68126891687A684A
:1015A800D2680A439A607B689B6A574A934222D062
:1015B8007B681B687A681268926822F070629A6089
:1015C8007B681B687A68126891687A68926A0A432D
:1015D8009A607B681B687A681268926822F04052A9
:1015E8009A607B681B687A68126891687A68D26A20
:1015F8000A439A600FE07B681B687A6812689268F1
:1016080022F070629A607B681B687A681268926838
:1016180022F040529A607B681B687A681268926868
:1016280022F002029A607B681B687A6812689168E7
:101638007A68926952000A439A607B681B6A002B99
:101648001BD07B681B687A681268526842F4006293
:101658005A607B681B687A681268526822F4604294
:101668005A607B681B687A68126851687A68526A9F
:10167800013A52030A435A6007E07B681B687A689C
:101688001268526822F400625A607B681B687A68A4
:101698001268D26A22F47002DA627B681B687A6880
:1016A8001268D16A7A68D269013A12050A43DA6285
:1016B8007B681B687A681268926822F400729A60E4
:1016C8007B681B687A68126891687A68126B5202A4
:1016D8000A439A607B681B687A681268926822F4E9
:1016E80080629A607B681B687A68126891687A6879
:1016F800526992020A439A6000BF1437BD465DF8EA
:10170800047B7047002301400100000F80B584B0BE
:1017180000AF78607B689B6BFB60FB681B6C03F019
:101728005003002B3CD1FB681B6C43F40072FB6830
:101738001A64FB681B689B6803F04053002B2BD18D
:10174800FB689B69002B27D1FB681B68DB6A03F4E5
:101758007003002B06D0FB681B689B6803F480634A
:10176800002B19D1FB681B68FA681268526822F0CE
:1017780020025A60FB681B6C23F48072FB681A64B1
:10178800FB681B6C03F48053002B05D1FB681B6CB2
:1017980043F00102FB681A64F86802F0ADF804E04F
:1017A800FB689B6BDB6C7868984700BF1037BD46B9
:1017B80080BD80B584B000AF78607B689B6BFB60B0
:1017C800F868FFF767FD00BF1037BD4680BD80B5DC
:1017D80084B000AF78607B689B6BFB60FB6840223D
:1017E8001A64FB685B6C43F00402FB685A64F8688F
:1017F800FFF764FD00BF1037BD4680BD80B483B0DD
:1018080000AF786000BF0C37BD465DF8047B7047B9
:1018180080B485B000AF78607B6803F00703FB6095
:101828000C4BDB68BB60BA684FF6FF031340BB6024
:10183800FB681A02BB68134343F0BF6343F40033E9
:10184800BB60044ABB68D36000BF1437BD465DF86F
:10185800047B704700ED00E080B400AF044BDB6808
:101868001B0A03F007031846BD465DF8047B704762
:1018780000ED00E080B483B000AF0346FB71094976
:1018880097F907305B09FA7902F01F02012000FA84
:1018980002F241F8232000BF0C37BD465DF8047BF7
:1018A800704700BF00E100E080B483B000AF03469A
:1018B8003960FB7197F90730002B0BDA0D49FB797A
:1018C80003F00F03043B3A68D2B21201D2B20B44C0
:1018D8001A7609E0084997F907303A68D2B2120136
:1018E800D2B20B4483F8002300BF0C37BD465DF825
:1018F800047B704700ED00E000E100E080B489B0AF
:1019080000AFF860B9607A60FB6803F00703FB6119
:10191800FB69C3F10703042B28BF0423BB61FB69E0
:101928000433062B02D9FB69033B00E000237B61EB
:101938000122BB6902FA03F35A1EBB681A407B698D
:101948009A4001217B6901FA03F3591E7B680B4019
:10195800134318462437BD465DF8047B70470000E2
:1019680080B582B000AF78607B68013BB3F1807FBF
:1019780001D301230FE00A4A7B68013B53600F2122
:101988004FF0FF30FFF790FF054B00229A60044BA1
:1019980007221A60002318460837BD4680BD00BFDD
:1019A80010E000E080B582B000AF78607868FFF79B
:1019B8002FFF00BF0837BD4680BD80B586B000AF99
:1019C8000346B9607A60FB7300237B61FFF744FF2D
:1019D80078617A68B9687869FFF790FF024697F9E5
:1019E8000F3011461846FFF75FFF00BF1837BD4696
:1019F80080BD80B582B000AF0346FB7197F9073010
:101A08001846FFF737FF00BF0837BD4680BD80B5D1
:101A180082B000AF78607868FFF7A2FF03461846E7
:101A28000837BD4680BD000080B483B000AF786041
:101A38007B68042B06D1094A084B1B6843F0040352
:101A4800136005E0054A054B1B6823F00403136087
:101A580000BF0C37BD465DF8047B704710E000E01E
:101A680080B500AF00F002F800BF80BD80B400AFC1
:101A780000BFBD465DF8047B7047000080B586B0A6
:101A880000AF786000237B61FFF7A2F938617B68BB
:101A9800002B01D1012399E07B68002283F83420D0
:101AA8007B68022283F835207B681B687A68126895
:101AB800126822F001021A600FE0FFF789F9024666
:101AC8003B69D31A052B08D97B6820225A657B68A5
:101AD800032283F83520032378E07B681B681B68A2
:101AE80003F00103002BE8D17B681B681B687B614E
:101AF8007A69384B13407B617B685A687B689B68BE
:101B08001A437B68DB681A437B681B691A437B6846
:101B18005B691A437B689B691A437B68DB691A43D4
:101B28007B681B6A13437A6913437B617B685B6A32
:101B3800042B07D17B68DA6A7B681B6B13437A69CD
:101B480013437B617B681B687A691A607B681B6832
:101B58005B697B617B6923F007037B617B685B6A58
:101B68007A6913437B617B685B6A042B17D17B68B6
:101B78009B6A7A6913437B617B68DB6A002B0ED012
:101B8800786800F077FA0346002B08D07B6840227B
:101B98005A657B68012283F83520012316E07B68AB
:101BA8001B687A695A61786800F02EFA0346FB6070
:101BB8007B68DB6D3F229A40FB689A607B68002255
:101BC8005A657B68012283F83520002318461837A8
:101BD800BD4680BD3F8010F080B586B000AFF8608C
:101BE800B9607A603B600023FB75FB689B6D3B61C5
:101BF800FB6893F83430012B01D1022348E0FB68DD
:101C0800012283F83420FB6893F83530DBB2012BCE
:101C180037D1FB68022283F83520FB6800225A6519
:101C28003B687A68B968F86800F0C0F9FB68DB6D52
:101C38003F229A403B699A60FB681B68FA68126801
:101C4800126842F016021A60FB681B68FA6812688C
:101C5800526942F080025A61FB681B6C002B07D066
:101C6800FB681B68FA681268126842F008021A607A
:101C7800FB681B68FA681268126842F001021A6071
:101C880005E0FB68002283F834200223FB75FB7D06
:101C980018461837BD4680BD80B586B000AF78605D
:101CA8000023BB60924B1B68924AA2FB03239B0A4A
:101CB8007B617B689B6D3B613B691B68FB607B6854
:101CC800DB6D08229A40FB681340002B1AD07B6812
:101CD8001B681B6803F00403002B13D07B681B6888
:101CE8007A681268126822F004021A607B68DB6D59
:101CF80008229A403B699A607B685B6D43F0010259
:101D08007B685A657B68DB6D01229A40FB6813404B
:101D1800002B12D07B681B685B6903F08003002BE3
:101D28000BD07B68DB6D01229A403B699A607B6827
:101D38005B6D43F002027B685A657B68DB6D0422A9
:101D48009A40FB681340002B12D07B681B681B6805
:101D580003F00203002B0BD07B68DB6D04229A4052
:101D68003B699A607B685B6D43F004027B685A6547
:101D78007B68DB6D10229A40FB681340002B43D030
:101D88007B681B681B6803F00803002B3CD07B684A
:101D9800DB6D10229A403B699A607B681B681B6860
:101DA80003F48023002B18D07B681B681B6803F49E
:101DB8000023002B08D17B681B6C002B24D07B6888
:101DC8001B6C786898471FE07B689B6C002B1BD0C6
:101DD8007B689B6C7868984716E07B681B681B6873
:101DE80003F48073002B07D17B681B687A6812683C
:101DF800126822F008021A607B681B6C002B03D063
:101E08007B681B6C786898477B68DB6D20229A405A
:101E1800FB681340002B00F08E807B681B681B68F2
:101E280003F01003002B00F086807B68DB6D202216
:101E38009A403B699A607B6893F83530DBB2052B92
:101E480036D17B681B687A681268126822F016021D
:101E58001A607B681B687A681268526922F08002EF
:101E68005A617B681B6C002B03D17B689B6C002B31
:101E780007D07B681B687A681268126822F008022B
:101E88001A607B68DB6D3F229A403B699A607B68E9
:101E9800002283F834207B68012283F835207B6890
:101EA8001B6D002B7DD07B681B6D7868984778E0A8
:101EB8007B681B681B6803F48023002B1CD07B689D
:101EC8001B681B6803F40023002B08D17B685B6C3C
:101ED800002B30D07B685B6C786898472BE07B6878
:101EE800DB6B002B27D07B68DB6B7868984722E098
:101EF80008000020B5814E1B7B681B681B6803F433
:101F08008073002B0FD17B681B687A68126812688F
:101F180022F010021A607B68002283F834207B6864
:101F2800012283F835207B68DB6B002B03D07B68AC
:101F3800DB6B786898477B685B6D002B32D07B68D9
:101F48005B6D03F00103002B22D07B68052283F828
:101F580035207B681B687A681268126822F00102D3
:101F68001A60BB680133BB607A69934207D87B6803
:101F78001B681B6803F00103002BF2D100E000BFCF
:101F88007B68002283F834207B68012283F835209F
:101F98007B68DB6C002B05D07B68DB6C7868984726
:101FA80000E000BF1837BD4680BD00BF80B485B0D3
:101FB80000AFF860B9607A603B60FB681B68FA683C
:101FC8001268126822F480221A60FB681B683A685B
:101FD8005A60FB689B68402B08D1FB681B687A68CD
:101FE8009A60FB681B68BA68DA6007E0FB681B68E0
:101FF800BA689A60FB681B687A68DA6000BF1437B1
:10200800BD465DF8047B704780B485B000AF78604A
:102018007B681B68DBB2103B144AA2FB03231B0935
:10202800FB60134AFB6813441B781A467B68DA6521
:10203800FB68032B09D97B681B6823F47F7323F0A3
:1020480003031A1D7B689A6507E07B681B6823F405
:102058007F7323F003037A6893657B689B6D18464A
:102068001437BD465DF8047B704700BFABAAAAAA27
:10207800CC42000880B485B000AF78600023FB73C1
:102088007B689B6ABB607B689B69002B1FD1BB6820
:10209800032B55D801A252F823F000BFB520000841
:1020A800C7200008B5200008492100087B68DB6AC2
:1020B80003F08073002B45D00123FB7342E07B685B
:1020C800DB6AB3F1C07F3FD10123FB733CE07B683F
:1020D8009B69B3F5005F21D1BB68032B36D801A2F9
:1020E80052F823F0FD20000803210008FD20000815
:1020F800152100080123FB732FE07B68DB6A03F0DE
:102108008073002B24D00123FB7321E07B68DB6AFA
:10211800B3F1C07F1ED10123FB731BE0BB68022B08
:1021280002D9032B03D018E00123FB7315E07B6869
:10213800DB6A03F08073002B0ED00123FB730BE0E6
:1021480000BF0AE000BF08E000BF06E000BF04E0EF
:1021580000BF02E000BF00E000BFFB7B1846143759
:10216800BD465DF8047B704780B489B000AF7860E5
:10217800396000237B6100233B610023BB6100239E
:10218800FB616BE10122FB6902FA03F37B613B68A7
:102198001A687B6913403B613A697B699A4240F04F
:1021A8005A813B685B68022B03D03B685B68122B43
:1021B80023D1FB69DA087B68083253F82230BB6107
:1021C800FB6903F007039B000F2202FA03F3DB43CA
:1021D800BA691340BB613B681A69FB6903F00703DE
:1021E8009B0002FA03F3BA691343BB61FB69DA087F
:1021F8007B680832B96943F822107B681B68BB61A9
:10220800FB695B00032202FA03F3DB43BA6913405C
:10221800BB613B685B6803F00302FB695B0002FA81
:1022280003F3BA691343BB617B68BA691A603B68F8
:102238005B68012B0BD03B685B68022B07D03B68BF
:102248005B68112B03D03B685B68122B30D17B682D
:102258009B68BB61FB695B00032202FA03F3DB4363
:10226800BA691340BB613B68DA68FB695B0002FA34
:1022780003F3BA691343BB617B68BA699A607B68E8
:102288005B68BB610122FB6902FA03F3DB43BA69AD
:102298001340BB613B685B681B0903F00102FB69E3
:1022A80002FA03F3BA691343BB617B68BA695A60DF
:1022B8007B68DB68BB61FB695B00032202FA03F3FE
:1022C800DB43BA691340BB613B689A68FB695B00F2
:1022D80002FA03F3BA691343BB617B68BA69DA602F
:1022E8003B685B6803F08053002B00F0B480002348
:1022F800FB605F4A5E4B5B6C43F4804353645C4B0A
:102308005B6C03F48043FB60FB685A4AFB699B08DB
:10231800023352F82330BB61FB6903F003039B00CF
:102328000F2202FA03F3DB43BA691340BB617B68EF
:10233800514A93422BD07B68504A934225D07B6800
:102348004F4A93421FD07B684E4A934219D07B680C
:102358004D4A934213D07B684C4A93420DD07B6818
:102368004B4A934207D07B684A4A934201D10723DC
:102378000EE008230CE006230AE0052308E0042306
:1023880006E0032304E0022302E0012300E0002327
:10239800FA6902F0030292009340BA691343BB61E1
:1023A8003449FB699B080233BA6941F823203A4B48
:1023B8001B68BB613B69DB43BA691340BB613B687F
:1023C8005B6803F48033002B03D0BA693B6913437D
:1023D800BB61314ABB6913602F4B5B68BB613B69CA
:1023E800DB43BA691340BB613B685B6803F40033A5
:1023F800002B03D0BA693B691343BB61264ABB690A
:102408005360254B9B68BB613B69DB43BA6913404A
:10241800BB613B685B6803F48013002B03D0BA6987
:102428003B691343BB611C4ABB6993601A4BDB6869
:10243800BB613B69DB43BA691340BB613B685B68BE
:1024480003F40013002B03D0BA693B691343BB6143
:10245800114ABB69D360FB690133FB61FB690F2B30
:102468007FF690AE00BF2437BD465DF8047B704709
:1024780000380240003801400000024000040240D9
:1024880000080240000C0240001002400014024004
:1024980000180240001C0240003C014080B483B098
:1024A80000AF78600B467B8013467B707B78002BEF
:1024B80003D07A887B689A6103E07B881A047B687A
:1024C8009A6100BF0C37BD465DF8047B704780B445
:1024D80083B000AF78600B467B807B685A697B8845
:1024E8005A407B685A6100BF0C37BD465DF8047BD3
:1024F8007047000080B586B000AF78607B68002B1D
:1025080001D101232DE27B681B6803F00103002B36
:1025180075D0A34B9B6803F00C03042B0CD0A04B85
:102528009B6803F00C03082B12D19D4B5B6803F4E6
:102538008003B3F5800F0BD1994B1B6803F400336C
:10254800002B5BD07B685B68002B57D1012308E226
:102558007B685B68B3F5803F06D1914A904B1B6856
:1025680043F4803313601DE07B685B68B3F5A02FEC
:102578000CD18B4A8A4B1B6843F480231360884A2A
:10258800874B1B6843F4803313600BE0844A844B09
:102598001B6823F480331360814A814B1B6823F442
:1025A800802313607B685B68002B13D0FEF710FC58
:1025B800386108E0FEF70CFC02463B69D31A642B2D
:1025C80001D90323CDE1764B1B6803F40033002BBC
:1025D800F0D014E0FEF7FCFB386108E0FEF7F8FBEA
:1025E80002463B69D31A642B01D90323B9E16C4B2A
:1025F8001B6803F40033002BF0D100E000BF7B68B8
:102608001B6803F00203002B63D0654B9B6803F043
:102618000C03002B0BD0624B9B6803F00C03082BB8
:102628001CD15F4B5B6803F48003002B16D15C4B15
:102638001B6803F00203002B05D07B68DB68012BC5
:1026480001D001238DE15649554B1B6823F0F80250
:102658007B681B69DB0013430B603AE07B68DB682F
:10266800002B20D04F4B01221A60FEF7B1FB3861D6
:1026780008E0FEF7ADFB02463B69D31A022B01D9ED
:1026880003236EE1464B1B6803F00203002BF0D0D6
:102698004349434B1B6823F0F8027B681B69DB0046
:1026A80013430B6015E03F4B00221A60FEF790FBC6
:1026B800386108E0FEF78CFB02463B69D31A022B0F
:1026C80001D903234DE1364B1B6803F00203002BAD
:1026D800F0D17B681B6803F00803002B30D07B68BF
:1026E8005B69002B16D0304B01221A60FEF770FB95
:1026F800386108E0FEF76CFB02463B69D31A022BEF
:1027080001D903232DE1264B5B6F03F00203002B55
:10271800F0D015E0244B00221A60FEF759FB38610F
:1027280008E0FEF755FB02463B69D31A022B01D994
:10273800032316E11A4B5B6F03F00203002BF0D161
:102748007B681B6803F00403002B00F0A0800023C3
:10275800FB75134B1B6C03F08053002B0FD1002328
:10276800FB600F4A0E4B1B6C43F0805313640C4BF9
:102778001B6C03F08053FB60FB680123FB750B4B5C
:102788001B6803F48073002B21D1084A074B1B6890
:1027980043F480731360FEF71BFB386111E000BF40
:1027A8000038024000004742800E47420070004057
:1027B800FEF70EFB02463B69D31A022B01D903230D
:1027C800CFE06A4B1B6803F48073002BF0D07B6862
:1027D8009B68012B06D1664A654B1B6F43F00103CA
:1027E80013671CE07B689B68052B0CD1604A604B23
:1027F8001B6F43F0040313675D4A5D4B1B6F43F087
:10280800010313670BE05A4A594B1B6F23F001036E
:102818001367574A564B1B6F23F0040313677B68F3
:102828009B68002B15D0FEF7D3FA38610AE0FEF753
:10283800CFFA02463B69D31A41F28832934201D952
:1028480003238EE04A4B1B6F03F00203002BEED0EC
:1028580014E0FEF7BDFA38610AE0FEF7B9FA02465D
:102868003B69D31A41F28832934201D9032378E0B5
:102878003F4B1B6F03F00203002BEED1FB7D012BB6
:1028880005D13B4A3A4B1B6C23F0805313647B6899
:102898009B69002B64D0364B9B6803F00C03082B14
:1028A8005CD07B689B69022B41D1324B00221A60B5
:1028B800FEF78EFA386108E0FEF78AFA02463B69AD
:1028C800D31A022B01D903234BE0294B1B6803F0D1
:1028D8000073002BF0D126497B68DA697B681B6A94
:1028E8001A437B685B6A9B011A437B689B6A5B0897
:1028F800013B1B041A437B68DB6A1B0613434B60CE
:102908001C4B01221A60FEF763FA386108E0FEF7F3
:102918005FFA02463B69D31A022B01D9032320E050
:10292800134B1B6803F00073002BF0D018E0114B19
:1029380000221A60FEF74CFA386108E0FEF748FA00
:1029480002463B69D31A022B01D9032309E0084B3D
:102958001B6803F00073002BF0D101E0012300E0B5
:10296800002318461837BD4680BD00BF00700040E0
:10297800003802406000474280B584B000AF7860FC
:1029880039607B68002B01D10123CAE0674B1B68C3
:1029980003F00F023B689A420CD2644B3A68D2B2F9
:1029A8001A70624B1B6803F00F023B689A4201D011
:1029B8000123B6E07B681B6803F00203002B20D0DC
:1029C8007B681B6803F00403002B05D0584A584B5A
:1029D8009B6843F4E05393607B681B6803F008032B
:1029E800002B05D0524A524B9B6843F460439360D6
:1029F8004F494F4B9B6823F0F0027B689B68134359
:102A08008B607B681B6803F00103002B44D07B6854
:102A18005B68012B07D1464B1B6803F40033002B7E
:102A280019D101237DE07B685B68022B03D07B68AA
:102A38005B68032B07D13E4B1B6803F00073002B28
:102A480009D101236DE03A4B1B6803F00203002B08
:102A580001D1012365E03649354B9B6823F0030219
:102A68007B685B6813438B60FEF7B2F9F8600AE095
:102A7800FEF7AEF90246FB68D31A41F28832934258
:102A880001D903234DE02A4B9B6803F00C027B68B5
:102A98005B689B009A42EBD1244B1B6803F00F0242
:102AA8003B689A420CD9214B3A68D2B21A701F4B34
:102AB8001B6803F00F023B689A4201D0012330E003
:102AC8007B681B6803F00403002B08D01849184BD7
:102AD8009B6823F4E0527B68DB6813438B607B6858
:102AE8001B6803F00803002B09D01149104B9B68A1
:102AF80023F460427B681B69DB0013438B6000F0A2
:102B08001DF801460A4B9B681B0903F00F03094A8D
:102B1800D35C21FA03F3084A13600020FEF714F986
:102B2800002318461037BD4680BD00BF003C024058
:102B380000380240D4420008080000202DE9F04F78
:102B48008FB000AF0023FB6200237B630023BB62CE
:102B580000233B63624B9B6803F00C03042B07D0F4
:102B6800082B08D0002B40F0B2805E4B3B63B1E0ED
:102B78005D4B3B63AEE05A4B5B6803F03F03FB627F
:102B8800574B5B6803F48003002B4ED0544B5B68B3
:102B98009B094FF0000440F2FF114FF0000201EAD8
:102BA800030102EA04020B46144660017862786A5F
:102BB80040EAD36078625B013B62D7E908345B1A6C
:102BC80064EB02044FEA841949EA93694FEA8318CF
:102BD800B8EB030869EB04094FEAC903FB61FB6919
:102BE80043EA5873FB614FEAC803BB61D7E906891A
:102BF80018EB010849EB02094FEA49237B617B691D
:102C080043EAD8537B614FEA48233B61D7E90489FB
:102C180040464946FB6A4FF000041A462346FDF732
:102C2800E9FE03460C467B6343E02D4B5B689B093A
:102C38004FF0000440F2FF114FF0000201EA0301D7
:102C480002EA04020B4614466001F860F86840EA9C
:102C5800D360F8605B01BB60D7E902345B1A64EBB0
:102C68000204A60146EA93669D01ED1A66EB040686
:102C7800F3007B607B6843EA55737B60EB003B6045
:102C880097E860006D1846EB02064FEA862B4BEA80
:102C9800955B4FEA852A55465E4628463146FB6ACB
:102CA8004FF000041A462346FDF7A4FE03460C46DF
:102CB8007B630B4B5B681B0C03F0030301335B0066
:102CC800BB627A6BBB6AB2FBF3F33B6302E0054B72
:102CD8003B6300BF3B6B18463C37BD46BDE8F08FF1
:102CE800003802400024F40000127A0080B400AFDB
:102CF800034B1B681846BD465DF8047B704700BF50
:102D08000800002080B582B000AF78607B68002B97
:102D180001D101231DE07B6893F83930DBB2002B29
:102D280006D17B68002283F83820786801F088F99A
:102D38007B68022283F839207B681A687B68043331
:102D48001946104600F030FA7B68012283F83920D2
:102D5800002318460837BD4680BD80B483B000AF55
:102D680078607B68022283F839207B681B687A6860
:102D78001268126842F001021A607B68012283F827
:102D88003920002318460C37BD465DF8047B704790
:102D980080B582B000AF78607B68002B01D1012339
:102DA8001DE07B6893F83930DBB2002B06D17B68D5
:102DB800002283F83820786800F015F87B68022232
:102DC80083F839207B681A687B68043319461046F3
:102DD80000F0EAF97B68012283F8392000231846BD
:102DE8000837BD4680BD80B483B000AF786000BFAF
:102DF8000C37BD465DF8047B7047000080B582B093
:102E080000AF786039607B681B6801223968184612
:102E180000F0ECFA7B681B68104A934204D07B6888
:102E28001B680F4A934201D1012300E00023002BC5
:102E380007D07B681B687A681268526C42F40042BB
:102E48005A647B681B687A681268126842F001024B
:102E58001A60002318460837BD4680BD00000140AF
:102E68000004014080B584B000AFF860B9607A60B2
:102E7800FB6893F83830012B01D10223B4E0FB68DA
:102E8800012283F83820FB68022283F839207B6806
:102E98000C2B00F29F8001A252F823F0D92E0008D3
:102EA800DD2F0008DD2F0008DD2F0008192F00088E
:102EB800DD2F0008DD2F0008DD2F00085B2F00083C
:102EC800DD2F0008DD2F0008DD2F00089B2F0008EC
:102ED800FB681B68B968184600F0ACFAFB681B6809
:102EE800FA681268926942F008029A61FB681B68E6
:102EF800FA681268926922F004029A61FB681B68FA
:102F0800FA6812689169BA6812690A439A6162E0BC
:102F1800FB681B68B968184600F0F0F9FB681B6885
:102F2800FA681268926942F400629A61FB681B6849
:102F3800FA681268926922F480629A61FB681B68D9
:102F4800FA6812689169BA68126912020A439A61AA
:102F580041E0FB681B68B968184600F0DFFAFB68B7
:102F68001B68FA681268D26942F00802DA61FB68E5
:102F78001B68FA681268D26922F00402DA61FB68F9
:102F88001B68FA681268D169BA6812690A43DA617B
:102F980021E0FB681B68B968184600F037FBFB683E
:102FA8001B68FA681268D26942F40062DA61FB6849
:102FB8001B68FA681268D26922F48062DA61FB68D9
:102FC8001B68FA681268D169BA68126912020A4362
:102FD800DA6100E000BFFB68012283F83920FB6852
:102FE800002283F83820002318461037BD4680BDDC
:102FF80080B584B000AF786039600023FB607B68DF
:1030080093F83830012B01D10223C8E07B680122F4
:1030180083F838207B68022283F839207B681B6894
:103028009B68FB60FB6823F07703FB60FB6823F475
:103038007F43FB607B681B68FA689A603B681B6883
:10304800402B77D0402B0ED8102B00F08A80102B05
:1030580002D8002B7ED099E0202B00F08980302BFD
:1030680000F08D8092E0702B16D0702B04D8502B76
:1030780040D0602B4ED089E0B3F5805F03D0B3F524
:10308800005F24D082E07B681B687A6812689268C7
:1030980022F007029A6079E07B6818683B689968B3
:1030A8003B685A683B68DB6800F097FB7B681B68E5
:1030B8009B68FB60FB6823F07703FB60FB6843F0C9
:1030C8007703FB607B681B68FA689A605EE07B6840
:1030D80018683B6899683B685A683B68DB6800F089
:1030E8007CFB7B681B687A681268926842F48042AD
:1030F8009A604BE07B6818683B6859683B68DB68F6
:103108001A4600F0E3FA7B681B685021184600F065
:1031180044FB3BE07B6818683B6859683B68DB68A0
:103128001A4600F006FB7B681B686021184600F011
:1031380034FB2BE07B6818683B6859683B68DB68A0
:103148001A4600F0C3FA7B681B684021184600F055
:1031580024FB1BE07B681B680021184600F01DFB60
:1031680014E07B681B681021184600F016FB0DE080
:103178007B681B682021184600F00FFB06E07B687F
:103188001B683021184600F008FB00BF7B6801224D
:1031980083F839207B68002283F8382000231846FA
:1031A8001037BD4680BD000080B485B000AF7860A0
:1031B80039600023FB607B681B68FB607B68444ABE
:1031C800934213D07B68B3F1804F0FD07B68414A9C
:1031D80093420BD07B68404A934207D07B683F4AB2
:1031E800934203D07B683E4A934201D1012300E019
:1031F8000023002B08D0FB6823F07003FB603B68BA
:103208005B68FA681343FB607B68314A93422BD0B2
:103218007B68B3F1804F27D07B682E4A934223D036
:103228007B682D4A93421FD07B682C4A93421BD05F
:103238007B682B4A934217D07B682A4A934213D063
:103248007B68294A93420FD07B68284A93420BD067
:103258007B68274A934207D07B68264A934203D06B
:103268007B68254A934201D1012300E00023002B0B
:1032780008D0FB6823F44073FB603B68DB68FA689E
:103288001343FB607B68FA681A603B689A687B683E
:10329800DA623B681A687B689A627B680C4A9342D8
:1032A80003D07B680E4A934201D1012300E000233A
:1032B800002B03D03B681A697B681A637B6801227C
:1032C8005A6100BF1437BD465DF8047B704700BFE4
:1032D800000001400004004000080040000C0040CD
:1032E8000004014000400140004401400048014002
:1032F80000180040001C00400020004080B487B047
:1033080000AF786039600023FB6000237B610023F5
:103318003B617B681B6A23F010027B681A627B683A
:103328001B6A7B617B685B683B617B689B69FB60B0
:10333800FB6823F4E043FB60FB6823F44073FB6005
:103348003B681B681B02FA681343FB607B6923F028
:1033580020037B613B689B681B017A6913437B618F
:103368007B68204A934203D07B681F4A934201D16D
:10337800012300E00023002B21D07B6923F0800388
:103388007B613B68DB681B017A6913437B617B695E
:1033980023F040037B613B6923F480633B613B6915
:1033A80023F400633B613B685B699B003A69134304
:1033B8003B613B689B699B003A6913433B617B68AF
:1033C8003A695A607B68FA689A613B685A687B6810
:1033D8009A637B687A691A6200BF1C37BD465DF83C
:1033E800047B7047000001400004014080B487B0AE
:1033F80000AFF860B9607A6000237B610122BB6886
:1034080002FA03F37B61FB681A6A7B69DB431A40A3
:10341800FB681A62FB681A6A7968BB6801FA03F3E9
:103428001A43FB681A6200BF1C37BD465DF8047B6F
:103438007047000080B487B000AF7860396000231F
:10344800FB6000237B6100233B617B681B6A23F0E0
:1034580001027B681A627B681B6A7B617B685B6818
:103468003B617B689B69FB60FB6823F07003FB6032
:10347800FB6823F00303FB603B681B68FA6813438F
:10348800FB607B6923F002037B613B689B687A6978
:1034980013437B617B681F4A934203D07B681E4AB3
:1034A800934201D1012300E00023002B1ED07B6949
:1034B80023F008037B613B68DB687A6913437B610F
:1034C8007B6923F004037B613B6923F480733B61D0
:1034D8003B6923F400733B613B685B693A691343BA
:1034E8003B613B689B693A6913433B617B683A6976
:1034F8005A607B68FA689A613B685A687B685A63C5
:103508007B687A691A6200BF1C37BD465DF8047B88
:10351800704700BF000001400004014080B487B03C
:1035280000AF786039600023FB6000237B610023D3
:103538003B617B681B6A23F480727B681A627B6834
:103548001B6A7B617B685B683B617B68DB69FB604E
:10355800FB6823F07003FB60FB6823F00303FB6048
:103568003B681B68FA681343FB607B6923F40073AC
:103578007B613B689B681B027A6913437B617B68AC
:10358800204A934203D07B681F4A934201D101230A
:1035980000E00023002B21D07B6923F400637B61CA
:1035A8003B68DB681B027A6913437B617B6923F400
:1035B80080637B613B6923F480533B613B6923F45F
:1035C80000533B613B685B691B013A6913433B61EC
:1035D8003B689B691B013A6913433B617B683A6905
:1035E8005A607B68FA68DA613B685A687B68DA6314
:1035F8007B687A691A6200BF1C37BD465DF8047B98
:10360800704700BF000001400004014080B487B04B
:1036180000AF7860396000233B610023FB60002322
:103628007B617B681B6A23F480527B681A627B6823
:103638001B6AFB607B685B687B617B68DB693B615D
:103648003B6923F4E0433B613B6923F440733B61EE
:103658003B681B681B023A6913433B61FB6823F410
:103668000053FB603B689B681B03FA681343FB60CD
:103678007B68144A934203D07B68134A934201D172
:10368800012300E00023002B09D07B6923F4804349
:103698007B613B685B699B017A6913437B617B684B
:1036A8007A695A607B683A69DA613B685A687B686C
:1036B8001A647B68FA681A6200BF1C37BD465DF859
:1036C800047B7047000001400004014080B487B0CB
:1036D80000AFF860B9607A6000237B6100233B612A
:1036E800FB681B6A3B61FB681B6A23F00102FB68ED
:1036F8001A62FB689B697B617B6923F0F0037B613D
:103708007B681B017A6913437B613B6923F00A03D9
:103718003B613A69BB6813433B61FB687A699A610C
:10372800FB683A691A6200BF1C37BD465DF8047B26
:10373800704780B487B000AFF860B9607A60002342
:103748007B6100233B61FB681B6A23F01002FB6866
:103758001A62FB689B697B61FB681B6A3B617B693A
:1037680023F470437B617B681B037A6913437B6195
:103778003B6923F0A0033B61BB681B013A69134313
:103788003B61FB687A699A61FB683A691A6200BF13
:103798001C37BD465DF8047B704780B485B000AF28
:1037A80078600B467B800023FB607B689B68FB602E
:1037B800FB6823F07003FB607B8843F007039BB230
:1037C8001A46FB681343FB607B68FA689A6000BF7F
:1037D8001437BD465DF8047B704780B487B000AFEE
:1037E800F860B9607A603B6000237B61FB689B6886
:1037F8007B617B6923F47F437B613B681A027B68AA
:103808001A43BB6813437A6913437B61FB687A697F
:103818009A6000BF1C37BD465DF8047B704780B4D2
:1038280083B000AF786039607B6893F83830012B3B
:1038380001D1022332E07B68012283F838207B68BB
:10384800022283F839207B681B687A6812685268FC
:1038580022F070025A607B681B687A6812685168A7
:103868003A6812680A435A607B681B687A6812686B
:10387800926822F080029A607B681B687A681268F6
:1038880091683A6852680A439A607B68012283F813
:1038980039207B68002283F83820002318460C372B
:1038A800BD465DF8047B704780B500AF0D48FFF753
:1038B80054FA03220C490D48FDF71AFC00210C4864
:1038C800FFF79CFA04210A48FFF798FA08210848EC
:1038D800FFF794FA00224FF400410648FEF7DEFD98
:1038E80000BF80BD40010020540000209800002047
:1038F8005C000020000C0240F0B583B000AF786097
:10390800454B1B680133444A1360444B00221A603C
:103918005AE0424B1C68414B1B68414A9B001344C8
:103928001B681846FCF7B0FD4FF000023D4BFCF752
:10393800FFFD02460B4615461E46384B1B683A4AA1
:1039480032F813301846FCF78DFD4FF000024FF0A7
:103958007F53FCF7EDFD02460B4628463146FCF73F
:1039680035FC02460B4610461946FCF7F3FF0146A4
:103978002E4AA30013441960284B1B68274A126873
:103988002A4992000A44126825499B000B441A6090
:10399800224B1B68214A1268244992000A44D2ED3E
:1039A800007AFCEEE77AC7ED007A3A8892B22049AD
:1039B800A1FB0212D20891B21E4A22F81310174B2B
:1039C8001B680133154A1360144B1B68022BA0D9DE
:1039D800194B1B68174A12885A63174B1B683433F4
:1039E8000433144A52881A60134B1B683433083363
:1039F800104A92881A60084B1B68092B07D94FF4A4
:103A080000410E48FEF763FD034B00221A6000BF19
:103A18000C37BD46F0BD00BF480000204C00002018
:103A28003C0000200000EC3F54000020280000204B
:103A3800CDCCCCCC340000205C000020000C02402F
:103A480080B500AFFDF75EF900F00EF800F0E8F978
:103A580000F0C6F900F038F900F0ECF800F07AF858
:103A6800FFF722FF30BFFDE780B594B000AF002319
:103A7800BB60344A334B1B6C43F080531364314BA7
:103A88001B6C03F08053BB60BB6800237B602E4A2D
:103A98002D4B1B6843F4804313602B4B1B6803F4C6
:103AA80080437B607B6801233B624FF480337B62F9
:103AB8000223BB634FF48003FB6304233B64A82306
:103AC8007B640223BB640423FB6407F120031846CC
:103AD800FEF710FD0346002B03D0A1211B4800F080
:103AE800E9F90F23FB6002233B6100237B614FF45C
:103AF800A053BB614FF48053FB6107F10C03052110
:103B08001846FEF739FF0346002B03D0AF210F48B4
:103B180000F0D0F9FFF7EAF802460D4BA3FB0223A9
:103B28009B091846FDF773FF0420FDF77DFF00226F
:103B380000214FF0FF30FDF740FF00BF5037BD4672
:103B480080BD00BF0038024000700040A04200085D
:103B5800D34D621080B584B000AF334B334A1A603E
:103B6800314B4FF480325A602F4B00229A602E4B13
:103B780001221A612C4B00229A612B4B00221A62F7
:103B8800294B4FF08052DA62274B4FF0C0629A629D
:103B9800254B0022DA60244B0322DA61224B0122F2
:103BA8001A63214B00225A611F48FDF71DF903468D
:103BB800002B03D0D4211E4800F07CF901233B6080
:103BC80001237B600423BB603B4619461648FDF77A
:103BD8007FFB0346002B03D0DE21154800F06AF96D
:103BE80002233B6002237B603B4619460E48FDF7E3
:103BF8006FFB0346002B03D0E7210D4800F05AF96C
:103C080003233B6003237B603B4619460648FDF7C8
:103C18005FFB0346002B03D0F021054800F04AF96A
:103C280000BF1037BD4680BD98000020002001402D
:103C3800A042000880B586B000AF214B4FF080420B
:103C48001A601F4B40F247325A601D4B00229A609F
:103C58001B4B42F20F72DA60194B00221A611848A6
:103C6800FFF750F80346002B04D040F20311154823
:103C780000F020F94FF48053BB6007F108031946A0
:103C88000F48FFF7B5F90346002B04D040F209119D
:103C98000C4800F00FF920233B6000237B603B4673
:103CA80019460748FFF7BBFD0346002B04D04FF425
:103CB8008871044800F0FEF800BF1837BD4680BD83
:103CC80040010020A042000880B58EB000AF414BF3
:103CD800414A1A603F4B4FF4D2725A603D4B002262
:103CE8009A603C4BC822DA603A4B00221A61394884
:103CF800FFF708F80346002B04D04FF492713748B9
:103D080000F0D8F84FF48053BB6207F12803194636
:103D18003048FFF76DF90346002B04D04FF4957136
:103D28002E4800F0C7F82B48FFF732F80346002B5F
:103D380004D040F22F11294800F0BCF800233B6260
:103D480000237B6207F1200319462248FFF767FD2D
:103D58000346002B04D04FF49B71204800F0AAF8CA
:103D680060237B600023BB600023FB6000237B6132
:103D78003B1D002219461748FFF774F80346002B2D
:103D880004D040F23F11154800F094F83B1D04227E
:103D980019461048FFF766F80346002B04D04FF485
:103DA800A2710E4800F086F83B1D08221946094802
:103DB800FFF758F80346002B04D040F24911074892
:103DC80000F078F8034800F071F900BF3837BD46B5
:103DD80080BD00BF5C00002000080040A042000831
:103DE80080B582B000AF00237B600C4A0B4B1B6B85
:103DF80043F480031363094B1B6B03F480037B605C
:103E08007B68002200213820FDF7D7FD3820FDF718
:103E1800F0FD00BF0837BD4680BD00BF0038024036
:103E280080B588B000AF0023BB60204A1F4B1B6BD6
:103E380043F0800313631D4B1B6B03F08003BB60CF
:103E4800BB6800237B60194A184B1B6B43F00103C6
:103E58001363164B1B6B03F001037B607B68002325
:103E68003B60124A114B1B6B43F0080313630F4B63
:103E78001B6B03F008033B603B6800224FF40041D2
:103E88000B48FEF70BFB4FF40043FB6001233B613B
:103E980000237B610023BB6107F10C03194604482A
:103EA800FEF762F900BF2037BD4680BD00380240EA
:103EB800000C024080B483B000AF78603960FEE740
:103EC80080B582B000AF00237B60254A244B5B6C31
:103ED80043F480435364224B5B6C03F480437B6060
:103EE8007B6800233B601E4A1D4B1B6C43F08053CC
:103EF80013641B4B1B6C03F080533B603B6803202F
:103F0800FDF750FD002200216FF00B00FDF755FD75
:103F1800002200216FF00A00FDF74FFD002200216A
:103F28006FF00900FDF749FD002200216FF0040041
:103F3800FDF743FD002200216FF00300FDF73DFD72
:103F4800002200216FF00100FDF737FD002200215B
:103F58004FF0FF30FDF731FD00BF0837BD4680BD8B
:103F68000038024080B588B000AF78607B681B6875
:103F78002D4A934253D10023BB602C4A2B4B5B6CD8
:103F880043F480735364294B5B6C03F48073BB6008
:103F9800BB680E23FB6003233B6100237B6107F1B1
:103FA8000C0319462248FEF7DFF8224B224A1A6012
:103FB800204B00225A601F4B00229A601D4B0022A2
:103FC800DA601C4B4FF480621A611A4B4FF400629E
:103FD8005A61184B4FF400529A61164B4FF4807295
:103FE800DA61144B00221A62124B00225A621148FD
:103FF800FDF744FD0346002B03D077210F48FFF758
:1040080059FF7B680B4A9A630A4A7B6893630022CC
:1040180002211220FDF7D1FC1220FDF7EAFC00BFB7
:104028002037BD4680BD00BF002001400038024057
:1040380000000240E000002010640240B042000886
:1040480080B485B000AF78607B681B68B3F1804F9F
:104058000ED10023FB60134A124B1B6C43F0010383
:104068001364104B1B6C03F00103FB60FB6812E048
:104078007B681B680C4A93420DD10023BB60094A38
:10408800084B1B6C43F004031364064B1B6C03F0D2
:104098000403BB60BB6800BF1437BD465DF8047BF2
:1040A800704700BF003802400008004080B588B063
:1040B80000AF78607B681B680B4A934210D14FF4BD
:1040C800E043FB6002233B6100237B610023BB616B
:1040D8000223FB6107F10C0319460448FEF744F874
:1040E80000BF2037BD4680BD00080040000C0240DC
:1040F80080B400AF00BFBD465DF8047B704780B454
:1041080000AFFEE780B400AFFEE780B400AFFEE783
:1041180080B400AFFEE780B400AF00BFBD465DF8D5
:10412800047B704780B400AF00BFBD465DF8047BD8
:10413800704780B400AF00BFBD465DF8047B704790
:1041480080B500AFFCF730FEFDF78AFC00BF80BDEC
:1041580080B500AF0248FCF78AFE00BF80BD00BFF3
:104168009800002080B500AF0248FDF795FD00BF1C
:1041780080BD00BFE000002080B400AF164A164B97
:10418800D3F8883043F47003C2F88830134A134BCD
:104198001B6843F001031360104B00229A600F4A1A
:1041A8000E4B1B6823F0847323F4803313600B4B8E
:1041B8000B4A5A60094A094B1B6823F48023136091
:1041C800064B0022DA60044B4FF000629A6000BF91
:1041D800BD465DF8047B704700ED00E00038024002
:1041E80010300024DFF834D0002103E00C4B5B587A
:1041F800435004310B480C4B42189A42F6D30B4AF1
:1042080002E0002342F8043B094B9A42F9D3FFF736
:10421800B3FF00F011F8FFF713FC7047000002200D
:10422800F4420008000000200C0000200C000020D0
:104238007C010020FEE7000070B50D4E0D4CA41B5C
:10424800A4100025A54209D10B4E0C4C00F018F81B
:10425800A41BA4100025A54205D170BD56F8253031
:1042680098470135EEE756F8253098470135F2E7CB
:10427800EC420008EC420008EC420008F04200085A
:10428800F8B500BFF8BC08BC9E467047F8B500BF3B
:08429800F8BC08BC9E4670470B
:1042A0002E2E5C5372635C6D61696E2E630000009C
:1042B0002E2E5C5372635C73746D3332663478787F
:1042C0005F68616C5F6D73702E63000000061016EE
:1042D00000061016000000000000000001020304A8
:0442E00006070809BC
:0842E40048C7FF7F0100000044
:0442EC00AD01000818
:0442F0008901000838
:0C42F40010000000010000000024F40095
:04000005080041EDC1
:00000001FF
