:020000040800F2
:1000000000000220851000081510000817100008D5
:10001000191000081B1000081D1000080000000047
:100020000000000000000000000000001F10000899
:10003000211000080000000023100008251000080F
:10004000D5100008D5100008D5100008D5100008FC
:10005000D5100008D510000833100008D51000088E
:10006000D5100008D5100008D5100008D5100008DC
:10007000D5100008D5100008D5100008D5100008CC
:10008000D5100008D5100008D5100008D5100008BC
:10009000D5100008D5100008D5100008D5100008AC
:1000A000D5100008D5100008D5100008D51000089C
:1000B000D5100008D5100008D5100008D51000088C
:1000C000D5100008D5100008D5100008D51000087C
:1000D000D5100008D5100008D5100008D51000086C
:1000E000D5100008D5100008D5100008D51000085C
:1000F000D5100008D5100008D5100008D51000084C
:10010000D5100008D5100008D5100008D51000083B
:10011000D5100008D5100008D5100008D51000082B
:10012000D5100008D5100008D5100008D51000081B
:10013000D5100008D5100008D5100008D51000080B
:10014000D5100008D5100008D5100008D5100008FB
:10015000D5100008D5100008D5100008D5100008EB
:10016000D5100008D5100008D5100008D5100008DB
:10017000D5100008D5100008D510000800000000B8
:08018000D5100008D51000089D
:1001880010B5054C237833B9044B13B10448AFF3C9
:1001980000800123237010BD0C0000200000000027
:1001A8002011000808B5034B1BB103490348AFF3FE
:1001B800008008BD00000000100000202011000889
:1001C80053B94AB9002908BF00281CBF4FF0FF31B6
:1001D8004FF0FF3000F07AB9ADF1080C6DE904CEAC
:1001E80000F006F8DDF804E0DDE9022304B070470A
:1001F8002DE9F0478C460D460446089E002B51D148
:100208008A4217466DD9B2FA82FEBEF1000F0BD0B2
:10021800CEF1200C01FA0EF520FA0CFC02FA0EF7CA
:100228004CEA050C00FA0EF44FEA174A250CBCFB01
:10023800FAF81FFA87F90AFB18CC45EA0C4508FBBF
:1002480009F3AB420AD9ED1908F1FF3280F0238196
:10025800AB4240F22081A8F102083D44ED1AA4B255
:10026800B5FBFAF00AFB105544EA054400FB09F90E
:10027800A14509D9E41900F1FF3380F00A81A145AD
:1002880040F2078102383C44A4EB090440EA0840E4
:100298000021002E61D024FA0EF40023346073602C
:1002A800BDE8F0878B4207D9002E54D0002186E89C
:1002B80021000846BDE8F087B3FA83F1002940F031
:1002C8008E80AB4202D3824200F2FA80841A65EB38
:1002D80003050120AC46002E3FD086E81010BDE88B
:1002E800F08712B90127B7FBF2F7B7FA87FEBEF11C
:1002F800000F34D1EB1B3A0C1FFA87FC0121B3FB2A
:10030800F2F8250C02FB183345EA03450CFB08F309
:10031800AB4207D9ED1908F1FF3002D2AB4200F227
:10032800D1808046ED1AA3B2B5FBF2F002FB10555E
:1003380043EA05440CFB00FCA44507D9E41900F185
:10034800FF3302D2A44500F2B8801846A4EB0C048F
:1003580040EA08409DE731463046BDE8F087CEF1D7
:10036800200405FA0EF307FA0EF720FA04F83A0CFF
:1003780025FA04F448EA0308B4FBF2F14FEA1845F9
:1003880002FB11441FFA87FC45EA044501FB0CF304
:10039800AB4200FA0EF409D9ED1901F1FF3080F0F3
:1003A8008A80AB4240F2878002393D44EB1A1FFA3B
:1003B80088F5B3FBF2F002FB103345EA034500FB76
:1003C8000CF3AB4207D9ED1900F1FF386FD2AB42FD
:1003D8006DD902383D44EB1A40EA01418FE7C1F17B
:1003E800200722FA07F88B4005FA01F448EA0303CC
:1003F80020FA07FE4FEA134CFD404EEA040EB5FB07
:10040800FCF94FEA1E440CFB19551FFA83F844EA1D
:10041800054509FB08F4AC4202FA01F200FA01FAB8
:1004280008D9ED1809F1FF3043D2AC4241D9A9F1FE
:1004380002091D442D1B1FFA8EFEB5FBFCF00CFBB8
:1004480010554EEA054400FB08F8A04507D9E41802
:1004580000F1FF3529D2A04527D902381C4440EACB
:100468000940A4EB0804A0FB02894C45C6464D464A
:1004780015D312D056B1BAEB0E0364EB050404FA97
:1004880007F7CB401F43CC40376074600021BDE8BC
:10049800F0871846F8E69046E0E6C245EAD2B8EB9F
:1004A800020E69EB03050138E4E72846D7E7404622
:1004B80091E78146BEE7014678E702383C4445E7C4
:1004C800084608E7A8F102083D442BE7704700BF3B
:1004D80038B50E4A0E4B054618784FF47A73B3FBBD
:1004E800F0F31068B0FBF3F000F094F8044658B944
:1004F8000F2D09D8024629464FF0FF3000F04AF880
:10050800044B20461D6038BD012038BD080000207E
:10051800000000200400002008B50B4B1A6842F4C4
:1005280000721A601A6842F480621A601A6842F40B
:1005380080721A60032000F01BF80020FFF7C8FF44
:1005480000F01CFD002008BD003C0240034A044B9B
:1005580011681B780B441360704700BF30000020FF
:1005680000000020014B1868704700BF30000020D1
:10057800074AD36823F4E0631B041B0C43F0BF63F2
:10058800000243F4003300F4E0600343D360704793
:1005980000ED00E0174B30B5DC68C4F30224C4F169
:1005A8000703251D042B28BF0423062D4FF0010542
:1005B80005FA03F303F1FF338CBF033C0024194011
:1005C800A14005FA04F4013C2240002842EA010255
:1005D8004FEA0212AFBF00F1604000F00F00064B77
:1005E800D2B2A5BF00F56140D2B21A5480F80023F8
:1005F80030BD00BF00ED00E014ED00E0420901232A
:1006080000F01F0003FA00F0014B43F82200704786
:1006180000E100E00138B0F1807F0AD2064B074ABA
:100628005860F02182F823100020072298601A6091
:1006380070470120704700BF10E000E000ED00E0C7
:10064800044B1A6804280CBF42F0040222F004028A
:100658001A60704710E000E008B500F055FB08BDCF
:100668002DE9F04F85B00B68DFF8AC81684ADFF8F8
:10067800AC91019300234FF0010E019C0EFA03FE8A
:100688000EEA0406B64540F0AE804C6824F0100728
:10069800022F16D14FEAD30A00EB8A0A03F0070BA0
:1006A800DAF820504FEA8B0B4FF00F0C0CFA0BFCCA
:1006B80025EA0C0C0D6905FA0BF545EA0C05CAF894
:1006C80020504FEA430A0325D0F800B005FA0AF58E
:1006D800ED4304F0030C0BEA050B0CFA0AFC013F8E
:1006E8004CEA0B0C012FC0F800C011D8876807EA44
:1006F800050BCF6807FA0AFC4CEA0B0787604768C6
:1007080027EA0E0EC4F300179F4047EA0E0747601A
:10071800C7683D408F6807FA0AF73D43C560E500A2
:1007280061D54FF0000BCDF80CB0D8F84470394DB6
:1007380047F48047C8F84470D8F8447007F48047F5
:100748000397039F23F0030707F1804707F59C37BA
:1007580003F0030CD7F808A04FEA8C0C4FF00F0EEB
:100768000EFA0CFEA8422AEA0E0E43D005F5806563
:10077800A84241D005F58065A8423FD005F58065BF
:10078800A8423DD005F58065A8423BD048453BD0FE
:1007980005F50065A84239D005F58065A84214BF63
:1007A8000825072505FA0CF545EA0E05BD6015680C
:1007B800F74314F4803F0CBF3D403543156055683E
:1007C80014F4003F0CBF3D4035435560956814F460
:1007D800801F0CBF3D4035439560D568A40254BFC7
:1007E8003D403543D5600133102B7FF444AF05B04D
:1007F800BDE8F08F5D46D5E70125D3E70225D1E7AF
:100808000325CFE70425CDE70525CBE70625C9E76E
:10081800003C014000000240003802400014024041
:100828000AB1816170470904FBE7000008B5044B71
:100838005969014202D0586100F056FA08BD00BF5C
:10084800003C01402DE9F341044618B9012002B0EB
:10085800BDE8F0810368DD0710D42368980758D4F1
:1008680023681A0700F19A8023685B0700F1B880B3
:10087800A269002A40F019810020E8E7A64B9A688F
:1008880002F00C02042A07D09A6802F00C02082A27
:100898000AD15B68590207D59F4B1B689A03DCD5C0
:1008A8006368002BD9D1D1E763689B4DB3F5803FCE
:1008B80011D12B6843F480332B60FFF753FE964D1C
:1008C80006462B689B03C8D4FFF74CFE801B6428A0
:1008D800F7D90320BBE7B3F5A02F04D12B6843F465
:1008E80080232B60E5E72A6822F480322A602A6890
:1008F80022F480222A60002BDFD1FFF733FE064660
:100908002B689F03A9D5FFF72DFE801B6428F7D914
:10091800DFE7814B9A6812F00C0F07D09A6802F053
:100928000C02082A11D15B685E020ED47A4B1A6851
:10093800950702D5E268012A88D11A68216922F050
:10094800F80242EAC1021A608AE7E268734BB2B160
:1009580001221A60FFF706FE6F4D06462B689807BE
:1009680007D52B68226923F0F80343EAC2032B60FA
:1009780076E7FFF7F7FD801B0228EFD9A9E71A6091
:10098800FFF7F0FD644D06462B6899077FF568AFC1
:10099800FFF7E8FD801B0228F6D99AE76269604BE9
:1009A8007AB101221A60FFF7DDFD5B4D06466B6FD9
:1009B8009F073FF559AFFFF7D5FD801B0228F6D9F1
:1009C80087E71A60FFF7CEFD534D06466B6F980711
:1009D8007FF54AAFFFF7C6FD801B0228F6D978E7F6
:1009E8004D4B1A6C12F0805228D101921A6C42F0C9
:1009F80080521A641B6C03F080530193019B0126FB
:100A0800484D2B68D9051BD5A368434D012B27D129
:100A18002B6F43F001032B67FFF7A4FD3E4D0746FC
:100A280041F288382B6F9B0739D5002E3FF420AF51
:100A3800394A136C23F08053136419E70026DFE763
:100A48002B6843F480732B60FFF78CFD07462B68F7
:100A5800DA05D9D4FFF786FDC01B0228F7D938E795
:100A6800052B04D12B6F43F004032B67D0E72A6FC3
:100A780022F001022A672A6F22F004022A67002B5B
:100A8800CAD1FFF76FFD41F2883807462B6F9807E8
:100A9800CBD5FFF767FDC01B4045F7D919E7FFF72E
:100AA80061FDC01B4045BDD913E71B4DAB6803F082
:100AB8000C03082B3FF4CAAE1B4E0023022A3360F6
:100AC80034D1FFF74FFD07462B6899011ED4226ADF
:100AD800E3691343626A43EA8213E26A43EA026300
:100AE800A26A0D4C5208013A43EA02436B600123A3
:100AF8003360FFF737FD054623689A013FF5BCAE22
:100B0800FFF730FD401B0228F6D9E2E6FFF72AFD81
:100B1800C01B0228D8D9DCE6003802400000474252
:100B2800800E47420070004060004742FFF71AFD00
:100B380004462B689B017FF59FAEFFF713FD001B52
:100B48000228F6D9C5E600BF134908B58B6803F03B
:100B58000C03042B03D0082B03D0104808BD104801
:100B680008BD4A684B68496813F4800314BF0C48F1
:100B78000A48C1F3881118BF002302F03F02A1FB05
:100B88000001FFF71DFB044B5B68C3F3014301330E
:100B98005B00B0FBF3F008BD003802400024F4000D
:100BA80000127A002DE9F0410D46044610B90120E3
:100BB800BDE8F081444B1A6802F00F028A4228D33C
:100BC80021688F072DD4C80740D43F4B1A6802F01C
:100BD8000F02954266D3226851076CD4130707D5D4
:100BE8003A4A2169936823F4604343EAC103936056
:100BF800FFF7AAFF354B364A9B68C3F30313D35C50
:100C0800D840344B18600020FFF762FC0020BDE894
:100C1800F081CAB21A701B6803F00F039942C6D15B
:100C2800CEE72A4B11F0040F1EBF9A6842F4E05237
:100C38009A600E0742BF9A6842F460429A609A68C6
:100C4800A06822F0F00202439A60BCE762681F4B7A
:100C5800012A1DD11B6813F4003FA8D01B4EB368AE
:100C680023F003031343B360FFF77CFC41F2883899
:100C78000746B368626803F00C03B3EB820FA4D095
:100C8800FFF770FCC01B4045F3D90320BDE8F08195
:100C9800911E01291B6802D813F0007FDDE713F0CD
:100CA800020FDAE7EAB21A701B6803F00F039D42DD
:100CB8007FF47DAF8FE70549E0688B6823F4E05344
:100CC80003438B608AE700BF003C024000380240C3
:100CD8003811000808000020014B1868704700BF51
:100CE8000800002030BF704708B5FFF73BFC3228EA
:100CF80006D9044A136813F1FF3318BF01231360A0
:100D080008BD00BF2800002038B5404C404A236881
:100D1800156801332360002D3DD1322B0BD12A46B3
:100D28004FF400413B48FFF77BFD01224FF480510F
:100D38003848FFF775FD2368642B0BD100224FF468
:100D480080513448FFF76CFD01224FF400513148BF
:100D5800FFF766FD2368962B0BD100224FF4005154
:100D68002C48FFF75DFD01224FF480412948FFF729
:100D780057FD2368C82B0DD100224FF48041254828
:100D8800FFF74EFD01224FF400412248FFF748FDCE
:100D98000023236038BD012DFCD1322B0BD100225A
:100DA8004FF480511B48FFF73BFD2A464FF40041A2
:100DB8001848FFF735FD2368642B0BD100224FF448
:100DC80000411448FFF72CFD01224FF480411148DF
:100DD800FFF726FD2368962B0BD100224FF48041A4
:100DE8000C48FFF71DFD01224FF400510948FFF799
:100DF80017FD2368C82BCDD100224FF400510548B8
:100E0800FFF70EFD01224FF48051BEE72C000020B1
:100E180028000020000C024030B595B0274B002177
:100E280001911A6C42F080521A641B6C03F08053D3
:100E38000193019B224B02911A6842F480421A6086
:100E48001B6803F480430293029B012308934FF429
:100E5800803309934FF48003022504240F9308A8D4
:100E6800A8230E951094119312951394FFF7EAFC9A
:100E780000B1FEE70F2303934FF4A05305900693A8
:100E880005214FF4805303A804950793FFF78AFEC2
:100E9800054600B1FEE7FFF71FFF4FF47A73B0FB7A
:100EA800F3F0FFF7B7FB2046FFF7CAFB2A462946AF
:100EB8004FF0FF30FFF76EFB15B030BD0038024031
:100EC8000070004000B58BB00024FFF725FBFFF74A
:100ED800A3FF264B01941A6B254842F080021A633F
:100EE8001A6B02F080020192019A02941A6B42F086
:100EF80001021A631A6B02F001020292029A039429
:100F08001A6B42F008021A631A6B02F00802039285
:100F1800039A04941A6B42F002021A631B6B03F0E3
:100F28000203224604934FF47041049B0125FFF706
:100F380077FC104B1048069305A905950794FFF711
:100F48008FFB4FF4704305A909480593069507944C
:100F58000894FFF785FB062022462146FFF71AFB77
:100F68000620FFF74BFBFFF7BDFEFCE70038024009
:100F7800000C0240000011100000024013B5224B83
:100F8800002400945A6C42F480425A645A6C02F469
:100F980080420092009A01941A6C42F080521A64BE
:100FA8001B6C03F0805301930320019BFFF7E0FAC9
:100FB800224621466FF00B00FFF7ECFA2246214645
:100FC8006FF00A00FFF7E6FA224621466FF00900A3
:100FD800FFF7E0FA224621466FF00400FFF7DAFA3D
:100FE800224621466FF00300FFF7D4FA2246214635
:100FF8006FF00100FFF7CEFA224621464FF0FF308E
:10100800FFF7C8FA02B010BD003802407047FEE78B
:10101800FEE7FEE7FEE770477047704708B5FFF741
:1010280095FABDE80840FFF717BB0120FFF7FEBBA4
:101038000F49D1F8883043F47003C1F888300D4B5C
:101048001A68002042F001021A6098601A6822F0BB
:10105800847222F480321A60074A5A601A6822F4AD
:1010680080221A60D8604FF000638B60704700BF21
:1010780000ED00E00038024010300024DFF834D0E2
:10108800002103E00C4B5B58435004310B480C4BD8
:1010980042189A42F6D30B4A02E0002342F8043B76
:1010A800094B9A42F9D3FFF7C3FF00F011F8FFF795
:1010B80009FF7047000002205811000800000020B6
:1010C8000C0000200C00002034000020FEE7000087
:1010D80070B50D4E0D4CA41BA4100025A54209D1D6
:1010E8000B4E0C4C00F018F8A41BA4100025A542C8
:1010F80005D170BD56F8253098470135EEE756F80A
:10110800253098470135F2E75011000850110008C2
:101118005011000854110008F8B500BFF8BC08BC0D
:101128009E467047F8B500BFF8BC08BC9E4670479D
:10113800000000000000000001020304060708097F
:08114800B0F0FF7F0100000080
:04115000AD010008E5
:041154008901000805
:0C11580001000000100000000024F40062
:04000005080010855A
:00000001FF
