:020000040800F2
:10000000000002201D1C0008151B0008171B00081B
:10001000191B00081B1B00081D1B00080000000026
:100020000000000000000000000000001F1B00088E
:10003000211B000800000000231B0008251B0008EE
:100040006D1C00086D1C00086D1C00086D1C00086C
:100050006D1C00086D1C00086D1C00086D1C00085C
:100060006D1C00086D1C00086D1C00086D1C00084C
:100070006D1C00086D1C00086D1C00086D1C00083C
:100080006D1C00086D1C00086D1C00086D1C00082C
:100090006D1C00086D1C00086D1C00086D1C00081C
:1000A0006D1C00086D1C00086D1C00086D1C00080C
:1000B0006D1C00086D1C00086D1C00086D1C0008FC
:1000C0006D1C00086D1C00086D1C00086D1C0008EC
:1000D0006D1C00086D1C00086D1C0008351B000815
:1000E0006D1C00086D1C00086D1C00086D1C0008CC
:1000F0006D1C00086D1C00086D1C00086D1C0008BC
:100100006D1C00086D1C00086D1C00086D1C0008AB
:100110006D1C00086D1C00086D1C00084D1B0008BC
:100120006D1C00086D1C00086D1C00086D1C00088B
:100130006D1C00086D1C00086D1C00086D1C00087B
:100140006D1C00086D1C00086D1C00086D1C00086B
:100150006D1C00086D1C00086D1C00086D1C00085B
:100160006D1C00086D1C00086D1C00086D1C00084B
:100170006D1C00086D1C00086D1C000800000000CC
:080180006D1C00086D1C000855
:1001880010B5054C237833B9044B13B10448AFF3C9
:1001980000800123237010BD0C0000200000000027
:1001A800B81C000808B5034B1BB103490348AFF35B
:1001B800008008BD0000000010000020B81C0008E6
:1001C80053B94AB9002908BF00281CBF4FF0FF31B6
:1001D8004FF0FF3000F07AB9ADF1080C6DE904CEAC
:1001E80000F006F8DDF804E0DDE9022304B070470A
:1001F8002DE9F0478C460D460446089E002B51D148
:100208008A4217466DD9B2FA82FEBEF1000F0BD0B2
:10021800CEF1200C01FA0EF520FA0CFC02FA0EF7CA
:100228004CEA050C00FA0EF44FEA174A250CBCFB01
:10023800FAF81FFA87F90AFB18CC45EA0C4508FBBF
:1002480009F3AB420AD9ED1908F1FF3280F0238196
:10025800AB4240F22081A8F102083D44ED1AA4B255
:10026800B5FBFAF00AFB105544EA054400FB09F90E
:10027800A14509D9E41900F1FF3380F00A81A145AD
:1002880040F2078102383C44A4EB090440EA0840E4
:100298000021002E61D024FA0EF40023346073602C
:1002A800BDE8F0878B4207D9002E54D0002186E89C
:1002B80021000846BDE8F087B3FA83F1002940F031
:1002C8008E80AB4202D3824200F2FA80841A65EB38
:1002D80003050120AC46002E3FD086E81010BDE88B
:1002E800F08712B90127B7FBF2F7B7FA87FEBEF11C
:1002F800000F34D1EB1B3A0C1FFA87FC0121B3FB2A
:10030800F2F8250C02FB183345EA03450CFB08F309
:10031800AB4207D9ED1908F1FF3002D2AB4200F227
:10032800D1808046ED1AA3B2B5FBF2F002FB10555E
:1003380043EA05440CFB00FCA44507D9E41900F185
:10034800FF3302D2A44500F2B8801846A4EB0C048F
:1003580040EA08409DE731463046BDE8F087CEF1D7
:10036800200405FA0EF307FA0EF720FA04F83A0CFF
:1003780025FA04F448EA0308B4FBF2F14FEA1845F9
:1003880002FB11441FFA87FC45EA044501FB0CF304
:10039800AB4200FA0EF409D9ED1901F1FF3080F0F3
:1003A8008A80AB4240F2878002393D44EB1A1FFA3B
:1003B80088F5B3FBF2F002FB103345EA034500FB76
:1003C8000CF3AB4207D9ED1900F1FF386FD2AB42FD
:1003D8006DD902383D44EB1A40EA01418FE7C1F17B
:1003E800200722FA07F88B4005FA01F448EA0303CC
:1003F80020FA07FE4FEA134CFD404EEA040EB5FB07
:10040800FCF94FEA1E440CFB19551FFA83F844EA1D
:10041800054509FB08F4AC4202FA01F200FA01FAB8
:1004280008D9ED1809F1FF3043D2AC4241D9A9F1FE
:1004380002091D442D1B1FFA8EFEB5FBFCF00CFBB8
:1004480010554EEA054400FB08F8A04507D9E41802
:1004580000F1FF3529D2A04527D902381C4440EACB
:100468000940A4EB0804A0FB02894C45C6464D464A
:1004780015D312D056B1BAEB0E0364EB050404FA97
:1004880007F7CB401F43CC40376074600021BDE8BC
:10049800F0871846F8E69046E0E6C245EAD2B8EB9F
:1004A800020E69EB03050138E4E72846D7E7404622
:1004B80091E78146BEE7014678E702383C4445E7C4
:1004C800084608E7A8F102083D442BE7704700BF3B
:1004D80038B50E4A0E4B054618784FF47A73B3FBBD
:1004E800F0F31068B0FBF3F000F094F8044658B944
:1004F8000F2D09D8024629464FF0FF3000F04AF880
:10050800044B20461D6038BD012038BD080000207E
:10051800000000200400002008B50B4B1A6842F4C4
:1005280000721A601A6842F480621A601A6842F40B
:1005380080721A60032000F01BF80020FFF7C8FF44
:1005480001F04EFA002008BD003C0240034A044B6B
:1005580011681B780B441360704700BF2800002007
:1005680000000020014B1868704700BF28000020D9
:10057800074AD36823F4E0631B041B0C43F0BF63F2
:10058800000243F4003300F4E0600343D360704793
:1005980000ED00E0174B30B5DC68C4F30224C4F169
:1005A8000703251D042B28BF0423062D4FF0010542
:1005B80005FA03F303F1FF338CBF033C0024194011
:1005C800A14005FA04F4013C2240002842EA010255
:1005D8004FEA0212AFBF00F1604000F00F00064B77
:1005E800D2B2A5BF00F56140D2B21A5480F80023F8
:1005F80030BD00BF00ED00E014ED00E0420901232A
:1006080000F01F0003FA00F0014B43F82200704786
:1006180000E100E00138B0F1807F0AD2064B074ABA
:100628005860F02182F823100020072298601A6091
:1006380070470120704700BF10E000E000ED00E0C7
:100648004309012200F01F0002FA00F06033024A59
:1006580042F82300704700BF00E100E0044B1A682D
:1006680004280CBF42F0040222F004021A6070470A
:1006780010E000E0704708B5FFF7FCFF08BD90F8F0
:100688003530022B03D08023436501207047026870
:10069800052380F83530136823F001031360002028
:1006A800704700002DE9F04F85B00B68DFF8AC818A
:1006B800684ADFF8AC91019300234FF0010E019CCA
:1006C8000EFA03FE0EEA0406B64540F0AE804C680A
:1006D80024F01007022F16D14FEAD30A00EB8A0A3A
:1006E80003F0070BDAF820504FEA8B0B4FF00F0C92
:1006F8000CFA0BFC25EA0C0C0D6905FA0BF545EA1A
:100708000C05CAF820504FEA430A0325D0F800B078
:1007180005FA0AF5ED4304F0030C0BEA050B0CFA95
:100728000AFC013F4CEA0B0C012FC0F800C011D89D
:10073800876807EA050BCF6807FA0AFC4CEA0B073B
:100748008760476827EA0E0EC4F300179F4047EA00
:100758000E074760C7683D408F6807FA0AF73D43B0
:10076800C560E50061D54FF0000BCDF80CB0D8F8A6
:100778004470394D47F48047C8F84470D8F844703D
:1007880007F480470397039F23F0030707F1804787
:1007980007F59C3703F0030CD7F808A04FEA8C0C38
:1007A8004FF00F0E0EFA0CFEA8422AEA0E0E43D0A6
:1007B80005F58065A84241D005F58065A8423FD07F
:1007C80005F58065A8423DD005F58065A8423BD077
:1007D80048453BD005F50065A84239D005F5806548
:1007E800A84214BF0825072505FA0CF545EA0E05A9
:1007F800BD601568F74314F4803F0CBF3D40354396
:100808001560556814F4003F0CBF3D4035435560F2
:10081800956814F4801F0CBF3D4035439560D5683A
:10082800A40254BF3D403543D5600133102B7FF4FB
:1008380044AF05B0BDE8F08F5D46D5E70125D3E7A5
:100848000225D1E70325CFE70425CDE70525CBE72A
:100858000625C9E7003C014000000240003802407C
:10086800001402400369194214BF01200020704798
:100878000AB1816170470904FBE700002DE9F341E3
:10088800044618B9012002B0BDE8F0810368DD070D
:1008980010D42368980758D423681A0700F19A805F
:1008A80023685B0700F1B880A269002A40F019812B
:1008B8000020E8E7A64B9A6802F00C02042A07D049
:1008C8009A6802F00C02082A0AD15B68590207D517
:1008D8009F4B1B689A03DCD56368002BD9D1D1E7FD
:1008E80063689B4DB3F5803F11D12B6843F4803387
:1008F8002B60FFF737FE964D06462B689B03C8D43E
:10090800FFF730FE801B6428F7D90320BBE7B3F557
:10091800A02F04D12B6843F480232B60E5E72A68D5
:1009280022F480322A602A6822F480222A60002B6E
:10093800DFD1FFF717FE06462B689F03A9D5FFF7FF
:1009480011FE801B6428F7D9DFE7814B9A6812F003
:100958000C0F07D09A6802F00C02082A11D15B68C4
:100968005E020ED47A4B1A68950702D5E268012A0E
:1009780088D11A68216922F0F80242EAC1021A6095
:100988008AE7E268734BB2B101221A60FFF7EAFD09
:100998006F4D06462B68980707D52B68226923F008
:1009A800F80343EAC2032B6076E7FFF7DBFD801B01
:1009B8000228EFD9A9E71A60FFF7D4FD644D06466F
:1009C8002B6899077FF568AFFFF7CCFD801B0228DD
:1009D800F6D99AE76269604B7AB101221A60FFF78B
:1009E800C1FD5B4D06466B6F9F073FF559AFFFF79B
:1009F800B9FD801B0228F6D987E71A60FFF7B2FD18
:100A0800534D06466B6F98077FF54AAFFFF7AAFD6F
:100A1800801B0228F6D978E74D4B1A6C12F08052E9
:100A280028D101921A6C42F080521A641B6C03F0B0
:100A380080530193019B0126484D2B68D9051BD58E
:100A4800A368434D012B27D12B6F43F001032B677C
:100A5800FFF788FD3E4D074641F288382B6F9B070C
:100A680039D5002E3FF420AF394A136C23F0805358
:100A7800136419E70026DFE72B6843F480732B60C3
:100A8800FFF770FD07462B68DA05D9D4FFF76AFD32
:100A9800C01B0228F7D938E7052B04D12B6F43F088
:100AA80004032B67D0E72A6F22F001022A672A6F16
:100AB80022F004022A67002BCAD1FFF753FD41F246
:100AC800883807462B6F9807CBD5FFF74BFDC01B1F
:100AD8004045F7D919E7FFF745FDC01B4045BDD98B
:100AE80013E71B4DAB6803F00C03082B3FF4CAAEA9
:100AF8001B4E0023022A336034D1FFF733FD07462B
:100B08002B6899011ED4226AE3691343626A43EA97
:100B18008213E26A43EA0263A26A0D4C5208013A60
:100B280043EA02436B6001233360FFF71BFD054670
:100B380023689A013FF5BCAEFFF714FD401B02285D
:100B4800F6D9E2E6FFF70EFDC01B0228D8D9DCE68D
:100B58000038024000004742800E474200700040C3
:100B680060004742FFF7FEFC04462B689B017FF5B7
:100B78009FAEFFF7F7FC001B0228F6D9C5E600BFB9
:100B8800134908B58B6803F00C03042B03D0082B1A
:100B980003D0104808BD104808BD4A684B6849682A
:100BA80013F4800314BF0C480A48C1F3881118BF16
:100BB800002302F03F02A1FB0001FFF701FB044BF9
:100BC8005B68C3F3014301335B00B0FBF3F008BD7E
:100BD800003802400024F40000127A002DE9F041A8
:100BE8000D46044610B90120BDE8F081444B1A684F
:100BF80002F00F028A4228D321688F072DD4C80734
:100C080040D43F4B1A6802F00F02954266D322681F
:100C180051076CD4130707D53A4A2169936823F41E
:100C2800604343EAC1039360FFF7AAFF354B364A96
:100C38009B68C3F30313D35CD840344B186000207F
:100C4800FFF746FC0020BDE8F081CAB21A701B68A5
:100C580003F00F039942C6D1CEE72A4B11F0040FD7
:100C68001EBF9A6842F4E0529A600E0742BF9A6823
:100C780042F460429A609A68A06822F0F002024347
:100C88009A60BCE762681F4B012A1DD11B6813F4E8
:100C9800003FA8D01B4EB36823F003031343B3608F
:100CA800FFF760FC41F288380746B368626803F0D2
:100CB8000C03B3EB820FA4D0FFF754FCC01B4045D4
:100CC800F3D90320BDE8F081911E01291B6802D8E1
:100CD80013F0007FDDE713F0020FDAE7EAB21A70CB
:100CE8001B6803F00F039D427FF47DAF8FE7054932
:100CF800E0688B6823F4E05303438B608AE700BF06
:100D0800003C024000380240F11C000808000020A6
:100D1800014B1868704700BF08000020044B054AC3
:100D28009B68C3F38223D35C034A1068D84070479A
:100D380000380240011D000808000020044B054A45
:100D48009B68C3F34233D35C034A1068D8407047AA
:100D580000380240011D0008080000207047704755
:100D680070477047704703681A69910710B50446C1
:100D78000ED5DA6892070BD56FF002021A619B69EB
:100D880001229B07027677D0FFF7EAFF002323763C
:100D980023681A69500710D5DA6851070DD56FF026
:100DA80004021A619B69022213F4407F22762046CE
:100DB80068D0FFF7D5FF0023237623681A69120746
:100DC8000FD5DA6810070CD56FF008021A61DB69D5
:100DD80004229907227620465AD0FFF7C1FF002344
:100DE800237623681A69D20610D5DA68D0060DD59D
:100DF8006FF010021A61DB69082213F4407F227633
:100E080020464BD0FFF7ACFF0023237623681A69EE
:100E1800D10708D5DA68D20705D56FF001021A6143
:100E28002046FFF79BFF23681A69100608D5DA6881
:100E3800110605D56FF080021A61204600F0D7F838
:100E480023681A69520608D5DA68500605D56FF086
:100E580040021A612046FFF785FF23681A69910648
:100E680022D5DA6892061FD56FF0200220461A6153
:100E7800BDE8104000F0BAB8FFF771FF2046FFF751
:100E880070FF83E7FFF76BFF2046FFF76AFF92E7E3
:100E9800FFF765FF2046FFF764FFA0E7FFF75FFF56
:100EA8002046FFF75EFFAFE710BD00002E4A03683B
:100EB800904212D0B0F1804F0FD0A2F57C42904200
:100EC8000BD002F58062904207D002F58062904212
:100ED80003D002F5784290421DD14A6823F070038E
:100EE8001343214A904204D1CA6823F44073134340
:100EF80028E0B0F1804FF7D01C4A9042F4D002F5B8
:100F080080629042F0D002F580629042ECD002F507
:100F180078429042E8D0164A9042E5D002F58062C5
:100F28009042E1D002F580629042DDD0A2F598327D
:100F38009042D9D002F580629042D5D002F5806205
:100F48009042D1D003608B68C3620B688362064B02
:100F5800984206D003F58063984202D0012343618A
:100F680070470B690363F9E7000001400004004083
:100F78000040014010B50446A0B190F8393003F0A4
:100F8800FF021BB980F8382000F072FD022384F8B4
:100F980039302068211DFFF789FF012384F8393093
:100FA800002010BD012010BD90F83830012B10B57D
:100FB8004FF0020318D080F8393003680C685A687B
:100FC800496822F070025A605A6822435A609A6847
:100FD80022F080029A609A680A439A60012380F896
:100FE8003930002380F83830184610BD70477047F4
:100FF8000368DA6822F49072DA605A6922F0010212
:101008005A61202380F83A30704700002DE9F047F4
:101018000668C2683369C16923F4405313433361D6
:10102800044683680069F2680343606922F4164243
:10103800034322F00C020B431343F3607369A26964
:1010480023F440731343B1F5004F73617A4B7CD19D
:101058009E4203D003F580639E4244D1FFF76EFEA3
:10106800192505FB00F360684FF064094000B3FBE5
:10107800F0F3B3FBF9F34FEA0318FFF75FFE636879
:1010880068435B00B0FBF3F7FFF758FE63686843FB
:101098005B00B0FBF3F3B3FBF9F309FB1373DB005D
:1010A8003233B3FBF9F35B0003F4F877FFF746FE3E
:1010B800626868435200B0FBF2FAFFF73FFE6368CC
:1010C80068435B00B0FBF3F3B3FBF9F309FB13A32D
:1010D800DB003233B3FBF9F303F0070343443B442B
:1010E800B360BDE8F087FFF719FE192505FB00F38B
:1010F80060684FF064094000B3FBF0F3B3FBF9F309
:101108004FEA0318FFF70AFE636868435B00B0FB09
:10111800F3F7FFF703FE636868435B00B0FBF3F384
:10112800B3FBF9F309FB1373DB003233B3FBF9F3B9
:101138005B0003F4F877FFF7F1FD6268684352003B
:10114800B0FBF2FAFFF7EAFDB9E79E4202D03B4B4B
:101158009E4240D1FFF7F2FD676819254FF06409F8
:1011680005FB00F3BF00B3FBF7F3B3FBF9F31F0173
:10117800FFF7E4FD636868439B00B0FBF3F8FFF7F3
:10118800DDFD636868439B00B0FBF3F3B3FBF9F341
:1011980009FB13831B013233B3FBF9F303F0F008A7
:1011A800FFF7CCFD626868439200B0FBF2FAFFF7E4
:1011B800C5FD636868439B00B0FBF3F3B3FBF9F329
:1011C80009FB13A31B013233B3FBF9F303F00F033D
:1011D80043EA080383E7FFF7A1FD676819254FF085
:1011E800640905FB00F3BF00B3FBF7F3B3FBF9F3A6
:1011F8001F01FFF793FD636868439B00B0FBF3F89A
:10120800FFF78CFD636868439B00B0FBF3F3B3FB07
:10121800F9F309FB13831B013233B3FBF9F303F032
:10122800F008FFF77BFD626868439200B0FBF2FAB2
:10123800FFF774FDBDE700BF001001400014014036
:10124800F8B504460E4617461D4621680B6836EA6F
:10125800030301D10020F8BD6B1CF7D095B92368B2
:10126800DA6822F4D072DA605A6922F001025A610F
:10127800202384F8393084F83A30002384F8383051
:101288000320F8BDFFF76EF9C01B8542DDD2E6E703
:1012980010B5044640B390F8393003F0FF021BB98B
:1012A80080F8382000F002FC2268242384F83930C2
:1012B800D36823F40053D3602046FFF7A7FE2368C2
:1012C8001A6922F490421A615A6922F02A025A6174
:1012D800DA6842F40052DA6000202023E06384F8E0
:1012E800393084F83A3010BD012010BD2DE9F041A5
:1012F8001F4690F83930202B04460D4690464FD1B2
:1013080000294AD0002A48D090F83830012B47D01D
:10131800012380F838300023C363212380F8393053
:10132800FFF720F9A4F824800646A4F82680E38C69
:101338009BB26BB93B46324640212046FFF780FFFF
:10134800B0B9202384F8393084F83800BDE8F0813A
:10135800E38C013B9BB2E384A368B3F5805F32461C
:101368003B464FF0800120460ED1FFF769FF10B1D0
:101378000320BDE8F0812B882268C3F3080353607B
:10138800236943B90235D2E7FFF75AFF0028EFD1A6
:1013980023682A785A600135C9E70120BDE8F08141
:1013A8000220BDE8F0817047704790F83A30222B50
:1013B80010B532D1836801690268B3F5805F836A2A
:1013C8001FD15268C9B9C2F3080223F8022B8362FD
:1013D800C48D013CA4B2C4856CB90368DA6822F4F0
:1013E8009072DA605A6922F001025A61202380F86B
:1013F8003A30FFF7D9FF002010BDD2B223F8012BF5
:10140800E5E721B9591C526881621A70E0E7526811
:10141800591C816202F07F02F7E7022010BD704775
:1014280003681A68D96870B5160704465D6907D15C
:1014380096065AD58D0658D5BDE87040FFF7B5BF5A
:1014480015F0010502D111F4907F4ED0D30705D5D0
:10145800CE0542BFE36B43F00103E363500704D5B5
:101468001DB1E36B43F00203E363930704D51DB199
:10147800E36B43F00403E363160704D51DB1E36B84
:1014880043F00803E363E36B002B66D0950604D5AD
:10149800880602D52046FFF788FF23685D69E26B5E
:1014A8001107204602D415F040051AD0FFF7A0FD19
:1014B80023685A69520610D55A69606B22F04002B7
:1014C8005A6150B1254B0365FFF7D9F8002844D07D
:1014D800606BBDE87040036D18472046FFF79FFF1B
:1014E80070BDFFF79CFFE56370BD160627D50D0696
:1014F80025D594F83920212A2FD1A268B2F5805F2A
:10150800226A17D11188C1F308015960216979B994
:1015180002322262E28C013A92B2E284EAB9DA68D3
:1015280022F08002DA60DA6842F04002DA6070BDC8
:101538000132EEE7511C216212785A60EAE7500640
:101548000BD54A0609D5DA6822F04002DA60202372
:1015580084F839302046FFF726FF70BD691500086A
:1015680008B5806B0023C385C384FFF758FF08BD07
:1015780008B50B4B1B685A6942F001025A61DA68D8
:1015880042F49072DA60012100222720FFF702F866
:101598002720FFF733F82720BDE80840FFF750B8A9
:1015A8000401002008B564220349044800F0F6FA53
:1015B800BDE80840FFF7DCBF3C0000202C000020FD
:1015C80030B5834B834D1868596891B00DAA03C292
:1015D8001C469868106054F80C0F61680AAA03C288
:1015E8002089108053F8170FA17A917059681B89C8
:1015F80001AA03C2138000237422ADF818308DF8B5
:101608001220622361228DF810308DF813206F2389
:1016180020228DF811308DF814308DF815208DF8B2
:1016280017306C2277238DF816208DF818300DF1BD
:101638001B040DF10301284600F0B7FA68B39DF8C2
:101648001D509DF81C409DF81E009DF81F10A5F127
:10165800650CDCF1000343EB0C036C2C14BF002277
:1016680003F00102642814BF002202F001023129AC
:1016780025D122B39DF820309DF82120A3F16F04D5
:10168800634263416E2A0DD163B101224FF40041D8
:101698005148FFF7EDF811B030BD9DF8033004F85C
:1016A800013FC6E7662A14BF002303F00103002B9D
:1016B800F1D09DF82230662BEDD10022E6E73229E1
:1016C8001CD1DAB19DF820309DF82120A3F16F00DC
:1016D800434243416E2A04D11BB101224FF4805189
:1016E800D6E7662A14BF002303F00103002BD2D0EB
:1016F8009DF82230662BCED10022EFE733291CD18A
:10170800DAB19DF820309DF82120A3F16F014B42FA
:101718004B416E2A04D11BB101224FF40051B7E7A7
:10172800662A14BF002303F00103002BB3D09DF8F1
:101738002230662BAFD10022EFE734291CD1DAB171
:101748009DF82030A3F16F02534253419DF82120A8
:101758006E2A04D11BB101224FF4804198E7662A12
:1017680014BF002303F00103002B94D09DF822300E
:10177800662B90D10022EFE7682C14BF002303F0FA
:1017880001036C2814BF002303F0010343B170293F
:1017980006D1C8230B220AA91048FFF7A7FD7AE74C
:1017A800622C08BF752D0ED174280CD101210C486C
:1017B800FFF758F801284FF0C8034FF009020CBF93
:1017C80001A904A9E8E7C8230C220DA9E4E700BF92
:1017D800D01C00082C000020000C0240040100204E
:1017E800000002402028014605D101224FF40041A3
:1017F8000448FFF73DB80A2801D1FFF7E1BE0248C7
:1018080000F0EDB9000C02402C00002003681A68B3
:10181800110705D1920606D55868C0B2FFF7E2BF96
:101828001A685968F4E7704730BF704730B595B00B
:10183800274B002101911A6C42F080521A641B6CEC
:1018480003F080530193019B224B02911A6842F4E2
:1018580080421A601B6803F480430293029B0123B1
:1018680008934FF4803309934FF48003022504242E
:101878000F9308A8A8230E9510941193129513940A
:10188800FEF7FCFF00B1FEE70F2303934FF4A053CC
:101898000590069305214FF4805303A804950793F8
:1018A800FFF79CF9054600B1FEE7FFF731FA4FF460
:1018B8007A73B0FBF3F0FEF7ADFE2046FEF7CEFEDE
:1018C8002A4629464FF0FF30FEF764FE15B030BDBA
:1018D800003802400070004000B58BB00024FEF7CD
:1018E8001BFEFFF7A3FF374B01941A6B364842F0F3
:1018F80080021A631A6B02F080020192019A029424
:101908001A6B42F001021A631A6B02F0010202928A
:10191800029A03941A6B42F008021A631A6B02F0D7
:1019280008020392039A04941A6B42F002021A63A3
:101938001B6B03F00203224604934FF47041049B8F
:101948000125FEF795FF05A92048059506940794FB
:10195800FEF7A8FE4FF4704305A91B4805930695AA
:1019680007940894FEF79EFE19481A4984604FF4BC
:10197800E13380E80A000C23C46004614361846198
:10198800C461FFF785FC00B1FEE7134C134AA06061
:1019980040F2E73384E80C00204641F26703E36035
:1019A800FFF7E8FA00B1FEE70590069005A9204682
:1019B800FFF7FAFA00B1FEE7FFF7F4FDFFF734FF8F
:1019C800FCE700BF00380240000C02400000024063
:1019D8000401002000480040440100200014004099
:1019E80013B5224B002400945A6C42F480425A6486
:1019F8005A6C02F480420092009A01941A6C42F0E8
:101A080080521A641B6C03F0805301930320019BDE
:101A1800FEF7AEFD224621466FF00B00FEF7BAFD39
:101A2800224621466FF00A00FEF7B4FD2246214601
:101A38006FF00900FEF7AEFD224621466FF0040064
:101A4800FEF7A8FD224621466FF00300FEF7A2FD2F
:101A5800224621466FF00100FEF79CFD22462146F2
:101A68004FF0FF30FEF796FD02B010BD003802407F
:101A780007B50D4B02689A4213D1002203F50933CA
:101A88000192196C41F0200119641B6C03F02003CA
:101A9800019337201146019BFEF77CFD3720FEF7A6
:101AA800ADFD03B05DF804FB0014004030B50268DA
:101AB800144B9A4287B023D103F5F83300250095DB
:101AC800196C114841F4802119641B6C03F48023BC
:101AD8000093009B4FF44073019302230293032366
:101AE8000124049301A9072305930394FEF7DAFD63
:101AF80027202A462146FEF74DFD2720FEF77EFDCA
:101B080007B030BD00480040000C02407047FEE7B7
:101B1800FEE7FEE7FEE770477047704708B5FEF737
:101B280015FDBDE80840FEF7A6BD000010B5044C41
:101B38002046FFF775FC2046BDE81040FFF766BE5B
:101B4800040100200148FFF70EB900BF440100203E
:101B58000F49D1F8883043F47003C1F888300D4B31
:101B68001A68002042F001021A6098601A6822F090
:101B7800847222F480321A60074A5A601A6822F482
:101B880080221A60D8604FF000638B60704700BFF6
:101B980000ED00E0003802401030002403464160A8
:101BA800028100201880588070474288038892B2CA
:101BB8009BB29A4211D0438842689BB2D35C0B70A7
:101BC800438802899BB201339342BDBF43880133E6
:101BD8009BB200234380002070470220704703888F
:101BE80002899BB201339342B8BF03884288B8BFC9
:101BF800013392B2B4BF9BB20023934218BF02884C
:101C080010B51FBF92B24468A154038014BF0020CE
:101C1800012010BDDFF834D0002103E00C4B5B58E5
:101C2800435004310B480C4B42189A42F6D30B4AE6
:101C380002E0002342F8043B094B9A42F9D3FFF72C
:101C480087FF00F011F8FFF747FE704700000220F9
:101C58001C1D0008000000200C0000200C000020C3
:101C680080010020FEE7000070B50D4E0D4CA41B4E
:101C7800A4100025A54209D10B4E0C4C00F018F811
:101C8800A41BA4100025A54205D170BD56F8253027
:101C980098470135EEE756F8253098470135F2E7C1
:101CA800141D0008141D0008141D0008181D000844
:101CB800F8B500BFF8BC08BC9E467047F8B500BF31
:081CC800F8BC08BC9E46704701
:101CD000436F6469676F207465737465436F6469EB
:101CE000676F2068656C70626F74616F20686967E8
:101CF000680000000000000000010203040607085D
:0C1D0000090000000001020304000000C4
:081D0C00ECE4FF7F0100000080
:041D1400AD01000815
:041D18008901000835
:0C1D1C0001000000100000000024F40092
:0400000508001C1DB6
:00000001FF
