:020000040800F2
:1000000000000220E91600086D1600086F160008AF
:10001000711600087316000875160008000000002D
:10002000000000000000000000000000771600083B
:1000300079160008000000007B1600087D160008F5
:100040003917000839170008391700083917000850
:1000500039170008391700088B16000839170008EF
:100060003917000839170008391700083917000830
:100070003917000839170008391700083917000820
:100080003917000839170008391700083917000810
:100090003917000839170008391700083917000800
:1000A00039170008391700083917000839170008F0
:1000B00039170008391700083917000839170008E0
:1000C00039170008391700083917000839170008D0
:1000D00039170008391700083917000839170008C0
:1000E00039170008391700083917000839170008B0
:1000F00039170008391700083917000839170008A0
:10010000391700083917000839170008391700088F
:100110003917000839170008391700089116000828
:10012000391700083917000839170008391700086F
:10013000391700083917000839170008391700085F
:10014000391700083917000839170008391700084F
:10015000391700083917000839170008391700083F
:10016000391700083917000839170008391700082F
:100170003917000839170008391700080000000077
:080180003917000839170008C7
:1001880010B5054C237833B9044B13B10448AFF3C9
:1001980000800123237010BD0C0000200000000027
:1001A8008417000808B5034B1BB103490348AFF394
:1001B800008008BD0000000010000020841700081F
:1001C80053B94AB9002908BF00281CBF4FF0FF31B6
:1001D8004FF0FF3000F07AB9ADF1080C6DE904CEAC
:1001E80000F006F8DDF804E0DDE9022304B070470A
:1001F8002DE9F0478C460D460446089E002B51D148
:100208008A4217466DD9B2FA82FEBEF1000F0BD0B2
:10021800CEF1200C01FA0EF520FA0CFC02FA0EF7CA
:100228004CEA050C00FA0EF44FEA174A250CBCFB01
:10023800FAF81FFA87F90AFB18CC45EA0C4508FBBF
:1002480009F3AB420AD9ED1908F1FF3280F0238196
:10025800AB4240F22081A8F102083D44ED1AA4B255
:10026800B5FBFAF00AFB105544EA054400FB09F90E
:10027800A14509D9E41900F1FF3380F00A81A145AD
:1002880040F2078102383C44A4EB090440EA0840E4
:100298000021002E61D024FA0EF40023346073602C
:1002A800BDE8F0878B4207D9002E54D0002186E89C
:1002B80021000846BDE8F087B3FA83F1002940F031
:1002C8008E80AB4202D3824200F2FA80841A65EB38
:1002D80003050120AC46002E3FD086E81010BDE88B
:1002E800F08712B90127B7FBF2F7B7FA87FEBEF11C
:1002F800000F34D1EB1B3A0C1FFA87FC0121B3FB2A
:10030800F2F8250C02FB183345EA03450CFB08F309
:10031800AB4207D9ED1908F1FF3002D2AB4200F227
:10032800D1808046ED1AA3B2B5FBF2F002FB10555E
:1003380043EA05440CFB00FCA44507D9E41900F185
:10034800FF3302D2A44500F2B8801846A4EB0C048F
:1003580040EA08409DE731463046BDE8F087CEF1D7
:10036800200405FA0EF307FA0EF720FA04F83A0CFF
:1003780025FA04F448EA0308B4FBF2F14FEA1845F9
:1003880002FB11441FFA87FC45EA044501FB0CF304
:10039800AB4200FA0EF409D9ED1901F1FF3080F0F3
:1003A8008A80AB4240F2878002393D44EB1A1FFA3B
:1003B80088F5B3FBF2F002FB103345EA034500FB76
:1003C8000CF3AB4207D9ED1900F1FF386FD2AB42FD
:1003D8006DD902383D44EB1A40EA01418FE7C1F17B
:1003E800200722FA07F88B4005FA01F448EA0303CC
:1003F80020FA07FE4FEA134CFD404EEA040EB5FB07
:10040800FCF94FEA1E440CFB19551FFA83F844EA1D
:10041800054509FB08F4AC4202FA01F200FA01FAB8
:1004280008D9ED1809F1FF3043D2AC4241D9A9F1FE
:1004380002091D442D1B1FFA8EFEB5FBFCF00CFBB8
:1004480010554EEA054400FB08F8A04507D9E41802
:1004580000F1FF3529D2A04527D902381C4440EACB
:100468000940A4EB0804A0FB02894C45C6464D464A
:1004780015D312D056B1BAEB0E0364EB050404FA97
:1004880007F7CB401F43CC40376074600021BDE8BC
:10049800F0871846F8E69046E0E6C245EAD2B8EB9F
:1004A800020E69EB03050138E4E72846D7E7404622
:1004B80091E78146BEE7014678E702383C4445E7C4
:1004C800084608E7A8F102083D442BE7704700BF3B
:1004D80038B50E4A0E4B054618784FF47A73B3FBBD
:1004E800F0F31068B0FBF3F000F094F8044658B944
:1004F8000F2D09D8024629464FF0FF3000F04AF880
:10050800044B20461D6038BD012038BD080000207E
:10051800000000200400002008B50B4B1A6842F4C4
:1005280000721A601A6842F480621A601A6842F40B
:1005380080721A60032000F01BF80020FFF7C8FF44
:1005480000F0F8FF002008BD003C0240034A044BBD
:1005580011681B780B441360704700BF2800002007
:1005680000000020014B1868704700BF28000020D9
:10057800074AD36823F4E0631B041B0C43F0BF63F2
:10058800000243F4003300F4E0600343D360704793
:1005980000ED00E0174B30B5DC68C4F30224C4F169
:1005A8000703251D042B28BF0423062D4FF0010542
:1005B80005FA03F303F1FF338CBF033C0024194011
:1005C800A14005FA04F4013C2240002842EA010255
:1005D8004FEA0212AFBF00F1604000F00F00064B77
:1005E800D2B2A5BF00F56140D2B21A5480F80023F8
:1005F80030BD00BF00ED00E014ED00E0420901232A
:1006080000F01F0003FA00F0014B43F82200704786
:1006180000E100E00138B0F1807F0AD2064B074ABA
:100628005860F02182F823100020072298601A6091
:1006380070470120704700BF10E000E000ED00E0C7
:10064800044B1A6804280CBF42F0040222F004028A
:100658001A60704710E000E0704708B5FFF7FCFF2C
:1006680008BD00002DE9F04F85B00B68DFF8AC81BC
:10067800684ADFF8AC91019300234FF0010E019C0A
:100688000EFA03FE0EEA0406B64540F0AE804C684A
:1006980024F01007022F16D14FEAD30A00EB8A0A7A
:1006A80003F0070BDAF820504FEA8B0B4FF00F0CD2
:1006B8000CFA0BFC25EA0C0C0D6905FA0BF545EA5A
:1006C8000C05CAF820504FEA430A0325D0F800B0B9
:1006D80005FA0AF5ED4304F0030C0BEA050B0CFAD6
:1006E8000AFC013F4CEA0B0C012FC0F800C011D8DE
:1006F800876807EA050BCF6807FA0AFC4CEA0B077C
:100708008760476827EA0E0EC4F300179F4047EA40
:100718000E074760C7683D408F6807FA0AF73D43F0
:10072800C560E50061D54FF0000BCDF80CB0D8F8E6
:100738004470394D47F48047C8F84470D8F844707D
:1007480007F480470397039F23F0030707F18047C7
:1007580007F59C3703F0030CD7F808A04FEA8C0C78
:100768004FF00F0E0EFA0CFEA8422AEA0E0E43D0E6
:1007780005F58065A84241D005F58065A8423FD0BF
:1007880005F58065A8423DD005F58065A8423BD0B7
:1007980048453BD005F50065A84239D005F5806588
:1007A800A84214BF0825072505FA0CF545EA0E05E9
:1007B800BD601568F74314F4803F0CBF3D403543D6
:1007C8001560556814F4003F0CBF3D403543556033
:1007D800956814F4801F0CBF3D4035439560D5687B
:1007E800A40254BF3D403543D5600133102B7FF43C
:1007F80044AF05B0BDE8F08F5D46D5E70125D3E7E6
:100808000225D1E70325CFE70425CDE70525CBE76A
:100818000625C9E7003C01400000024000380240BC
:10082800001402400369194214BF012000207047D8
:1008380008B5044B5969014202D0586100F0FEFC2A
:1008480008BD00BF003C01402DE9F341044618B93A
:10085800012002B0BDE8F0810368DD0710D42368E9
:10086800980758D423681A0700F19A8023685B0711
:1008780000F1B880A269002A40F019810020E8E759
:10088800A64B9A6802F00C02042A07D09A6802F074
:100898000C02082A0AD15B68590207D59F4B1B68CE
:1008A8009A03DCD56368002BD9D1D1E763689B4DE7
:1008B800B3F5803F11D12B6843F480332B60FFF7E9
:1008C80051FE964D06462B689B03C8D4FFF74AFE97
:1008D800801B6428F7D90320BBE7B3F5A02F04D108
:1008E8002B6843F480232B60E5E72A6822F48032E2
:1008F8002A602A6822F480222A60002BDFD1FFF7C1
:1009080031FE06462B689F03A9D5FFF72BFE801BF7
:100918006428F7D9DFE7814B9A6812F00C0F07D0EB
:100928009A6802F00C02082A11D15B685E020ED4A4
:100938007A4B1A68950702D5E268012A88D11A68A5
:10094800216922F0F80242EAC1021A608AE7E268E5
:10095800734BB2B101221A60FFF704FE6F4D0646D1
:100968002B68980707D52B68226923F0F80343EA18
:10097800C2032B6076E7FFF7F5FD801B0228EFD94D
:10098800A9E71A60FFF7EEFD644D06462B68990744
:100998007FF568AFFFF7E6FD801B0228F6D99AE7D6
:1009A8006269604B7AB101221A60FFF7DBFD5B4D8B
:1009B80006466B6F9F073FF559AFFFF7D3FD801BC6
:1009C8000228F6D987E71A60FFF7CCFD534D064693
:1009D8006B6F98077FF54AAFFFF7C4FD801B0228AD
:1009E800F6D978E74D4B1A6C12F0805228D1019253
:1009F8001A6C42F080521A641B6C03F08053019306
:100A0800019B0126484D2B68D9051BD5A368434D8A
:100A1800012B27D12B6F43F001032B67FFF7A2FDB2
:100A28003E4D074641F288382B6F9B0739D5002E7B
:100A38003FF420AF394A136C23F08053136419E74D
:100A48000026DFE72B6843F480732B60FFF78AFDED
:100A580007462B68DA05D9D4FFF784FDC01B0228A6
:100A6800F7D938E7052B04D12B6F43F004032B6724
:100A7800D0E72A6F22F001022A672A6F22F00402C7
:100A88002A67002BCAD1FFF76DFD41F28838074667
:100A98002B6F9807CBD5FFF765FDC01B4045F7D9ED
:100AA80019E7FFF75FFDC01B4045BDD913E71B4D94
:100AB800AB6803F00C03082B3FF4CAAE1B4E0023AF
:100AC800022A336034D1FFF74DFD07462B689901A0
:100AD8001ED4226AE3691343626A43EA8213E26A14
:100AE80043EA0263A26A0D4C5208013A43EA024300
:100AF8006B6001233360FFF735FD054623689A01D3
:100B08003FF5BCAEFFF72EFD401B0228F6D9E2E602
:100B1800FFF728FDC01B0228D8D9DCE600380240C0
:100B280000004742800E4742007000406000474284
:100B3800FFF718FD04462B689B017FF59FAEFFF772
:100B480011FD001B0228F6D9C5E600BF134908B5F8
:100B58008B6803F00C03042B03D0082B03D0104838
:100B680008BD104808BD4A684B68496813F48003FB
:100B780014BF0C480A48C1F3881118BF002302F0BB
:100B88003F02A1FB0001FFF71BFB044B5B68C3F3AB
:100B9800014301335B00B0FBF3F008BD00380240AD
:100BA8000024F40000127A002DE9F0410D460446B5
:100BB80010B90120BDE8F081444B1A6802F00F0219
:100BC8008A4228D321688F072DD4C80740D43F4BC9
:100BD8001A6802F00F02954266D3226851076CD456
:100BE800130707D53A4A2169936823F4604343EA17
:100BF800C1039360FFF7AAFF354B364A9B68C3F3DE
:100C08000313D35CD840344B18600020FFF760FC16
:100C18000020BDE8F081CAB21A701B6803F00F0308
:100C28009942C6D1CEE72A4B11F0040F1EBF9A682D
:100C380042F4E0529A600E0742BF9A6842F460425A
:100C48009A609A68A06822F0F00202439A60BCE7B2
:100C580062681F4B012A1DD11B6813F4003FA8D0FE
:100C68001B4EB36823F003031343B360FFF77AFC0A
:100C780041F288380746B368626803F00C03B3EBA7
:100C8800820FA4D0FFF76EFCC01B4045F3D90320A8
:100C9800BDE8F081911E01291B6802D813F0007F7E
:100CA800DDE713F0020FDAE7EAB21A701B6803F007
:100CB8000F039D427FF47DAF8FE70549E0688B689D
:100CC80023F4E05303438B608AE700BF003C0240F3
:100CD800003802409C17000808000020014B1868E3
:100CE800704700BF08000020036A23F00103036275
:100CF800036A426870B584690D6824F0730425435B
:100D08008C6823F0020323430C4CA04209D004F55D
:100D18008064A04205D042604A68856142630362EC
:100D280070BDCC688E6923F0080323434C6922F414
:100D38004072344323F004032243ECE700000140EF
:100D4800036A23F480730362036A426870B5C46956
:100D58000D6824F0730425438C6823F4007343EA78
:100D680004230E4CA04209D004F58064A04205D0AB
:100D780042604A68C561C263036270BDCC688E690F
:100D880023F4006343EA04234C6922F440523443B9
:100D980023F4806342EA0412EAE700BF000001403E
:100DA800036A23F48053036230B5046A4368C26956
:100DB8000D6822F4E64242EA05228D6824F40054C4
:100DC80044EA0534094DA84209D005F58065A842D2
:100DD80005D043604B68C2610364046230BD4D694D
:100DE80023F4804343EA8513F3E700BF0000014082
:100DF8000368DA6842F00102DA601A6842F0010218
:100E08001A600020704770477047704770477047F6
:100E180003681A69910710B504460ED5DA68920777
:100E28000BD56FF002021A619B6901229B070276BB
:100E380077D0FFF7EAFF0023237623681A69500763
:100E480010D5DA6851070DD56FF004021A619B6955
:100E5800022213F4407F2276204668D0FFF7D5FFA0
:100E68000023237623681A6912070FD5DA6810075A
:100E78000CD56FF008021A61DB6904229907227603
:100E880020465AD0FFF7C1FF0023237623681A694A
:100E9800D20610D5DA68D0060DD56FF010021A61A7
:100EA800DB69082213F4407F227620464BD0FFF7F7
:100EB800ACFF0023237623681A69D10708D5DA68BE
:100EC800D20705D56FF001021A612046FFF79BFF94
:100ED80023681A69100608D5DA68110605D56FF077
:100EE80080021A61204600F0A8F923681A695206A0
:100EF80008D5DA68500605D56FF040021A61204619
:100F0800FFF785FF23681A69910622D5DA689206E9
:100F18001FD56FF0200220461A61BDE8104000F08E
:100F28008BB9FFF771FF2046FFF770FF83E7FFF7E4
:100F38006BFF2046FFF76AFF92E7FFF765FF204641
:100F4800FFF764FFA0E7FFF75FFF2046FFF75EFFAC
:100F5800AFE710BD2E4A0368904212D0B0F1804F1F
:100F68000FD0A2F57C4290420BD002F580629042ED
:100F780007D002F58062904203D002F57842904291
:100F88001DD14A6823F070031343214A904204D1CB
:100F9800CA6823F44073134328E0B0F1804FF7D0B8
:100FA8001C4A9042F4D002F580629042F0D002F5DB
:100FB80080629042ECD002F578429042E8D0164A1E
:100FC8009042E5D002F580629042E1D002F580625D
:100FD8009042DDD0A2F598329042D9D002F58062D5
:100FE8009042D5D002F580629042D1D003608B68E0
:100FF800C3620B688362064B984206D003F5806390
:10100800984202D00123436170470B690363F9E7F3
:1010180000000140000400400040014010B50446B3
:10102800A0B190F8393003F0FF021BB980F83820DE
:1010380000F0E0FA022384F839302068211DFFF718
:1010480089FF012384F83930002010BD012010BD2C
:1010580010B50446A0B190F8393003F0FF021BB96F
:1010680080F8382000F0AEFA022384F8393020687E
:10107800211DFFF76FFF012384F83930002010BDD0
:10108800012010BD036A23F010030362036A42685B
:1010980070B584690D6824F4E64444EA05258C6833
:1010A80023F0200343EA04130D4CA04209D004F5B1
:1010B8008064A04205D042604A6885618263036209
:1010C80070BDCC688E6923F0800343EA04134C6931
:1010D80022F44062344323F0400342EA8402EAE700
:1010E8000000014038B590F83830012B04464FF025
:1010F800020025D0012384F8383084F839000C2AFE
:1011080018D8DFE802F0071717171E1717172F1739
:10111800171740002068FFF7E7FD236809699A69F7
:1011280042F008029A619A6922F004029A619A6967
:101138000A439A610123002084F8393084F8380082
:1011480038BD2068FFF79EFF236809699A6942F451
:1011580000629A619A6922F480629A619A6942EA05
:101168000122E6E72068FFF7EBFD23680969DA69E1
:1011780042F00802DA61DA6922F00402DA61DA6917
:101188000A43DA61D6E72068FFF70AFE236809698F
:10119800DA6942F40062DA61DA6922F48062DA61BB
:1011A800DA6942EA0122ECE7036A10B501248C40AF
:1011B80023EA04030362036A8A401A43026210BDE9
:1011C80010B5044601220068FFF7EEFF2368084ABD
:1011D800934203D002F58062934203D15A6C42F4E1
:1011E80000425A641A6842F001021A60002010BDD9
:1011F8000000014090F83830012B10B54FF0020381
:1012080018D080F8393003680C685A68496822F0A9
:1012180070025A605A6822435A609A6822F0800223
:101228009A609A680A439A60012380F8393000234B
:1012380080F83830184610BD70477047012810B53F
:1012480001465BD12E48FFF7EDFA012856D12D4B08
:101258002D4C1B682268596A891AC7293DD82B4A20
:101268005B6A236013683BB92949106009684B63BE
:101278008B63CB630B6410BD012B0AD1244B1B6815
:1012880040F2E14159639963D963196402231360F9
:1012980010BD022B09D11E4B1B6840F6C3115963C0
:1012A8009963D96319640323F1E7032B09D1184B18
:1012B8001B6840F6A66159639963D96319640423CE
:1012C800E5E7042B1AD1124B1B6841F287315963A9
:1012D8009963D96319640023D9E7596A5B6A891A43
:1012E800B1F57A7F0AD99B1AB3F5FA6F06D8084B7D
:1012F8001B6800225A639A63DA631A6410BD00BF40
:101308000000024070000020680000206C000020EF
:101318002C00002030B595B0274B002101911A6CA4
:1013280042F080521A641B6C03F080530193019BB6
:10133800224B02911A6842F480421A601B6803F437
:1013480080430293029B012308934FF4803309934F
:101358004FF48003022504240F9308A8A8230E95B0
:101368001094119312951394FFF76EFA00B1FEE7EB
:101378000F2303934FF4A0530590069305214FF4D0
:10138800805303A804950793FFF70EFC054600B1A8
:10139800FEE7FFF7A3FC4FF47A73B0FBF3F0FFF717
:1013A80039F92046FFF74CF92A4629464FF0FF3015
:1013B800FFF7F0F815B030BD00380240007000406B
:1013C80000B58FB00025FFF7A7F8FFF7A3FF514B33
:1013D80001951A6B5048514C42F080021A631A6BFF
:1013E80002F080020192019A02951A6B42F0010202
:1013F8001A631A6B02F001020292029A03951A6BA1
:1014080042F008021A631A6B02F008020392039A68
:1014180004951A6B42F002021A631B6B099503F0DC
:1014280002030493049B0123079307A93C4B0893E9
:10143800FFF718F92A4629460620FFF7ABF80620D9
:10144800FFF7DCF8374AA560532384E80C002046F0
:1014580041F28733E3602561FFF7FAFD00B1FEE74B
:101468000590069005A92046FFF7C4FE024600B184
:10147800FEE76023089009900B9007A92046079380
:10148800FFF730FE00B1FEE7042207A92046FFF768
:1014980029FE00B1FEE7082207A92046FFF722FE31
:1014A80000B1FEE70C2207A92046FFF71BFE0646FF
:1014B80000B1FEE71C4D204600F0BAF81B4BAE60A9
:1014C800284685E84800EE60FFF7A8FD00B1FEE772
:1014D8000790089007A92846FFF78CFE064600B13A
:1014E800FEE72846FFF784FC31462046FFF768FEF2
:1014F80004212046FFF764FE08212046FFF760FE1E
:101508000C212046FFF75CFE2B685A6A084B1A60CC
:1015180030BFFDE700380240000002402C000020E8
:101528000000111000080040700000200014004066
:101538006800002013B5224B002400945A6C42F432
:1015480080425A645A6C02F480420092009A0194D4
:101558001A6C42F080521A641B6C03F0805301939A
:101568000320019BFFF704F8224621466FF00B0089
:10157800FFF710F8224621466FF00A00FFF70AF835
:10158800224621466FF00900FFF704F8224621465B
:101598006FF00400FEF7FEFF224621466FF00300BD
:1015A800FEF7F8FF224621466FF00100FEF7F2FF32
:1015B800224621464FF0FF30FEF7ECFF02B010BD87
:1015C800003802400268094B9A4282B00BD10023CE
:1015D8000193074B1A6C42F004021A641B6C03F067
:1015E80004030193019B02B0704700BF000800404C
:1015F8000038024007B50D4B02689A4213D1002209
:1016080003F509330192196C41F0200119641B6C30
:1016180003F02003019337201146019BFEF7BAFF20
:101628003720FEF7EBFF03B05DF804FB0014004021
:101638007FB50268094B9A420CD14FF470430022DF
:10164800019301A902230648029303920492059389
:10165800FFF708F807B05DF804FB00BF000800407A
:10166800000C02407047FEE7FEE7FEE7FEE7704722
:101678007047704708B5FEF769FFBDE80840FEF7F8
:10168800ECBF0120FFF7D4B80148FFF7C1BB00BF8A
:10169800700000200F49D1F8883043F47003C1F876
:1016A80088300D4B1A68002042F001021A609860D9
:1016B8001A6822F0847222F480321A60074A5A604B
:1016C8001A6822F480221A60D8604FF000638B6099
:1016D800704700BF00ED00E00038024010300024E1
:1016E800DFF834D0002103E00C4B5B584350043141
:1016F8000B480C4B42189A42F6D30B4A02E00023DF
:1017080042F8043B094B9A42F9D3FFF7C3FF00F0B4
:1017180011F8FFF755FE704700000220BC170008BB
:10172800000000200C0000200C000020AC0000206D
:10173800FEE7000070B50D4E0D4CA41BA41000254B
:10174800A54209D10B4E0C4C00F018F8A41BA410AC
:101758000025A54205D170BD56F8253098470135BA
:10176800EEE756F8253098470135F2E7B417000838
:10177800B4170008B4170008B8170008F8B500BF78
:10178800F8BC08BC9E467047F8B500BFF8BC08BC5A
:041798009E467047B2
:10179C000000000000000000010203040607080915
:0817AC004CEAFF7F0100000080
:0417B400AD0100087B
:0417B800890100089B
:0C17BC0001000000100000000024F400F8
:04000005080016E9F0
:00000001FF
